{
  "contractName": "HeroWorld",
  "abi": [
    {
      "anonymous": false,
      "inputs": [
        {
          "indexed": false,
          "internalType": "address",
          "name": "_from",
          "type": "address"
        },
        {
          "indexed": false,
          "internalType": "address",
          "name": "_to",
          "type": "address"
        },
        {
          "indexed": false,
          "internalType": "uint256",
          "name": "_tokenId",
          "type": "uint256"
        }
      ],
      "name": "ApprovalSuccess",
      "type": "event"
    },
    {
      "anonymous": false,
      "inputs": [
        {
          "indexed": false,
          "internalType": "uint256",
          "name": "heroId",
          "type": "uint256"
        },
        {
          "indexed": false,
          "internalType": "address",
          "name": "owner",
          "type": "address"
        }
      ],
      "name": "FightResult",
      "type": "event"
    },
    {
      "anonymous": false,
      "inputs": [
        {
          "indexed": false,
          "internalType": "uint256",
          "name": "heroId",
          "type": "uint256"
        },
        {
          "indexed": false,
          "internalType": "uint256",
          "name": "dna",
          "type": "uint256"
        },
        {
          "indexed": false,
          "internalType": "uint8",
          "name": "species",
          "type": "uint8"
        },
        {
          "indexed": false,
          "internalType": "uint8",
          "name": "rarity",
          "type": "uint8"
        },
        {
          "indexed": false,
          "internalType": "uint32",
          "name": "level",
          "type": "uint32"
        }
      ],
      "name": "HeroCreated",
      "type": "event"
    },
    {
      "anonymous": false,
      "inputs": [
        {
          "indexed": true,
          "internalType": "address",
          "name": "previousOwner",
          "type": "address"
        },
        {
          "indexed": true,
          "internalType": "address",
          "name": "newOwner",
          "type": "address"
        }
      ],
      "name": "OwnershipTransferred",
      "type": "event"
    },
    {
      "anonymous": false,
      "inputs": [
        {
          "indexed": false,
          "internalType": "uint256",
          "name": "cardId",
          "type": "uint256"
        },
        {
          "indexed": false,
          "internalType": "uint8",
          "name": "species",
          "type": "uint8"
        },
        {
          "indexed": false,
          "internalType": "uint8",
          "name": "rarity",
          "type": "uint8"
        }
      ],
      "name": "SummonCardCreated",
      "type": "event"
    },
    {
      "anonymous": false,
      "inputs": [
        {
          "indexed": false,
          "internalType": "address",
          "name": "_from",
          "type": "address"
        },
        {
          "indexed": false,
          "internalType": "address",
          "name": "_to",
          "type": "address"
        },
        {
          "indexed": false,
          "internalType": "uint256",
          "name": "_tokenId",
          "type": "uint256"
        }
      ],
      "name": "TransferSuccess",
      "type": "event"
    },
    {
      "inputs": [
        {
          "internalType": "address",
          "name": "_to",
          "type": "address"
        },
        {
          "internalType": "uint256",
          "name": "_tokenId",
          "type": "uint256"
        }
      ],
      "name": "approve",
      "outputs": [],
      "stateMutability": "nonpayable",
      "type": "function"
    },
    {
      "inputs": [
        {
          "internalType": "address",
          "name": "_owner",
          "type": "address"
        }
      ],
      "name": "balanceOf",
      "outputs": [
        {
          "internalType": "uint256",
          "name": "_balance",
          "type": "uint256"
        }
      ],
      "stateMutability": "view",
      "type": "function",
      "constant": true
    },
    {
      "inputs": [
        {
          "internalType": "uint256",
          "name": "_heroId",
          "type": "uint256"
        },
        {
          "internalType": "uint256",
          "name": "_targetId",
          "type": "uint256"
        }
      ],
      "name": "fight",
      "outputs": [],
      "stateMutability": "nonpayable",
      "type": "function"
    },
    {
      "inputs": [],
      "name": "generateRandomHero",
      "outputs": [],
      "stateMutability": "nonpayable",
      "type": "function"
    },
    {
      "inputs": [],
      "name": "getAllHeroes",
      "outputs": [
        {
          "components": [
            {
              "internalType": "uint256",
              "name": "heroId",
              "type": "uint256"
            },
            {
              "internalType": "uint256",
              "name": "dna",
              "type": "uint256"
            },
            {
              "internalType": "uint8",
              "name": "species",
              "type": "uint8"
            },
            {
              "internalType": "uint8",
              "name": "rarity",
              "type": "uint8"
            },
            {
              "internalType": "uint32",
              "name": "level",
              "type": "uint32"
            },
            {
              "internalType": "uint32",
              "name": "readyTime",
              "type": "uint32"
            },
            {
              "internalType": "uint16",
              "name": "winCount",
              "type": "uint16"
            },
            {
              "internalType": "uint16",
              "name": "lossCount",
              "type": "uint16"
            },
            {
              "internalType": "string",
              "name": "summonType",
              "type": "string"
            }
          ],
          "internalType": "struct HeroFactory.Hero[]",
          "name": "",
          "type": "tuple[]"
        }
      ],
      "stateMutability": "view",
      "type": "function",
      "constant": true
    },
    {
      "inputs": [
        {
          "internalType": "address",
          "name": "_owner",
          "type": "address"
        }
      ],
      "name": "getCardsByOwner",
      "outputs": [
        {
          "components": [
            {
              "internalType": "uint256",
              "name": "summonCardId",
              "type": "uint256"
            },
            {
              "internalType": "uint8",
              "name": "species",
              "type": "uint8"
            },
            {
              "internalType": "uint8",
              "name": "rarity",
              "type": "uint8"
            },
            {
              "internalType": "uint32",
              "name": "readyTime",
              "type": "uint32"
            },
            {
              "internalType": "bool",
              "name": "used",
              "type": "bool"
            }
          ],
          "internalType": "struct HeroFactory.SummonCard[]",
          "name": "",
          "type": "tuple[]"
        }
      ],
      "stateMutability": "view",
      "type": "function",
      "constant": true
    },
    {
      "inputs": [
        {
          "internalType": "address",
          "name": "_owner",
          "type": "address"
        }
      ],
      "name": "getHeroesByOthers",
      "outputs": [
        {
          "components": [
            {
              "internalType": "uint256",
              "name": "heroId",
              "type": "uint256"
            },
            {
              "internalType": "uint256",
              "name": "dna",
              "type": "uint256"
            },
            {
              "internalType": "uint8",
              "name": "species",
              "type": "uint8"
            },
            {
              "internalType": "uint8",
              "name": "rarity",
              "type": "uint8"
            },
            {
              "internalType": "uint32",
              "name": "level",
              "type": "uint32"
            },
            {
              "internalType": "uint32",
              "name": "readyTime",
              "type": "uint32"
            },
            {
              "internalType": "uint16",
              "name": "winCount",
              "type": "uint16"
            },
            {
              "internalType": "uint16",
              "name": "lossCount",
              "type": "uint16"
            },
            {
              "internalType": "string",
              "name": "summonType",
              "type": "string"
            }
          ],
          "internalType": "struct HeroFactory.Hero[]",
          "name": "",
          "type": "tuple[]"
        }
      ],
      "stateMutability": "view",
      "type": "function",
      "constant": true
    },
    {
      "inputs": [
        {
          "internalType": "address",
          "name": "_owner",
          "type": "address"
        }
      ],
      "name": "getHeroesByOwner",
      "outputs": [
        {
          "components": [
            {
              "internalType": "uint256",
              "name": "heroId",
              "type": "uint256"
            },
            {
              "internalType": "uint256",
              "name": "dna",
              "type": "uint256"
            },
            {
              "internalType": "uint8",
              "name": "species",
              "type": "uint8"
            },
            {
              "internalType": "uint8",
              "name": "rarity",
              "type": "uint8"
            },
            {
              "internalType": "uint32",
              "name": "level",
              "type": "uint32"
            },
            {
              "internalType": "uint32",
              "name": "readyTime",
              "type": "uint32"
            },
            {
              "internalType": "uint16",
              "name": "winCount",
              "type": "uint16"
            },
            {
              "internalType": "uint16",
              "name": "lossCount",
              "type": "uint16"
            },
            {
              "internalType": "string",
              "name": "summonType",
              "type": "string"
            }
          ],
          "internalType": "struct HeroFactory.Hero[]",
          "name": "",
          "type": "tuple[]"
        }
      ],
      "stateMutability": "view",
      "type": "function",
      "constant": true
    },
    {
      "inputs": [
        {
          "internalType": "uint256",
          "name": "",
          "type": "uint256"
        }
      ],
      "name": "heroToOwner",
      "outputs": [
        {
          "internalType": "address",
          "name": "",
          "type": "address"
        }
      ],
      "stateMutability": "view",
      "type": "function",
      "constant": true
    },
    {
      "inputs": [
        {
          "internalType": "uint256",
          "name": "",
          "type": "uint256"
        }
      ],
      "name": "heroes",
      "outputs": [
        {
          "internalType": "uint256",
          "name": "heroId",
          "type": "uint256"
        },
        {
          "internalType": "uint256",
          "name": "dna",
          "type": "uint256"
        },
        {
          "internalType": "uint8",
          "name": "species",
          "type": "uint8"
        },
        {
          "internalType": "uint8",
          "name": "rarity",
          "type": "uint8"
        },
        {
          "internalType": "uint32",
          "name": "level",
          "type": "uint32"
        },
        {
          "internalType": "uint32",
          "name": "readyTime",
          "type": "uint32"
        },
        {
          "internalType": "uint16",
          "name": "winCount",
          "type": "uint16"
        },
        {
          "internalType": "uint16",
          "name": "lossCount",
          "type": "uint16"
        },
        {
          "internalType": "string",
          "name": "summonType",
          "type": "string"
        }
      ],
      "stateMutability": "view",
      "type": "function",
      "constant": true
    },
    {
      "inputs": [
        {
          "internalType": "uint256",
          "name": "_HeroId",
          "type": "uint256"
        }
      ],
      "name": "levelUp",
      "outputs": [],
      "stateMutability": "payable",
      "type": "function",
      "payable": true
    },
    {
      "inputs": [],
      "name": "owner",
      "outputs": [
        {
          "internalType": "address",
          "name": "",
          "type": "address"
        }
      ],
      "stateMutability": "view",
      "type": "function",
      "constant": true
    },
    {
      "inputs": [
        {
          "internalType": "uint256",
          "name": "_tokenId",
          "type": "uint256"
        }
      ],
      "name": "ownerOf",
      "outputs": [
        {
          "internalType": "address",
          "name": "_owner",
          "type": "address"
        }
      ],
      "stateMutability": "view",
      "type": "function",
      "constant": true
    },
    {
      "inputs": [],
      "name": "purchaseCard",
      "outputs": [],
      "stateMutability": "payable",
      "type": "function",
      "payable": true
    },
    {
      "inputs": [],
      "name": "renounceOwnership",
      "outputs": [],
      "stateMutability": "nonpayable",
      "type": "function"
    },
    {
      "inputs": [
        {
          "internalType": "uint256",
          "name": "_fee",
          "type": "uint256"
        }
      ],
      "name": "setCardPurchaseFee",
      "outputs": [],
      "stateMutability": "nonpayable",
      "type": "function"
    },
    {
      "inputs": [
        {
          "internalType": "uint256",
          "name": "_fee",
          "type": "uint256"
        }
      ],
      "name": "setLevelUpFee",
      "outputs": [],
      "stateMutability": "nonpayable",
      "type": "function"
    },
    {
      "inputs": [
        {
          "internalType": "uint256",
          "name": "",
          "type": "uint256"
        }
      ],
      "name": "summonCardToOwner",
      "outputs": [
        {
          "internalType": "address",
          "name": "",
          "type": "address"
        }
      ],
      "stateMutability": "view",
      "type": "function",
      "constant": true
    },
    {
      "inputs": [
        {
          "internalType": "uint256",
          "name": "",
          "type": "uint256"
        }
      ],
      "name": "summonCards",
      "outputs": [
        {
          "internalType": "uint256",
          "name": "summonCardId",
          "type": "uint256"
        },
        {
          "internalType": "uint8",
          "name": "species",
          "type": "uint8"
        },
        {
          "internalType": "uint8",
          "name": "rarity",
          "type": "uint8"
        },
        {
          "internalType": "uint32",
          "name": "readyTime",
          "type": "uint32"
        },
        {
          "internalType": "bool",
          "name": "used",
          "type": "bool"
        }
      ],
      "stateMutability": "view",
      "type": "function",
      "constant": true
    },
    {
      "inputs": [
        {
          "internalType": "uint256",
          "name": "_tokenId",
          "type": "uint256"
        }
      ],
      "name": "takeOwnership",
      "outputs": [],
      "stateMutability": "nonpayable",
      "type": "function"
    },
    {
      "inputs": [
        {
          "internalType": "address",
          "name": "_to",
          "type": "address"
        },
        {
          "internalType": "uint256",
          "name": "_tokenId",
          "type": "uint256"
        }
      ],
      "name": "transfer",
      "outputs": [],
      "stateMutability": "nonpayable",
      "type": "function"
    },
    {
      "inputs": [
        {
          "internalType": "address",
          "name": "newOwner",
          "type": "address"
        }
      ],
      "name": "transferOwnership",
      "outputs": [],
      "stateMutability": "nonpayable",
      "type": "function"
    },
    {
      "inputs": [
        {
          "internalType": "uint256",
          "name": "_id",
          "type": "uint256"
        }
      ],
      "name": "useSummoningCard",
      "outputs": [],
      "stateMutability": "nonpayable",
      "type": "function"
    },
    {
      "inputs": [],
      "name": "withdraw",
      "outputs": [],
      "stateMutability": "nonpayable",
      "type": "function"
    }
  ],
  "bytecode": "0x6080604052655af3107a4000600155603c6002556078600355600060045566038d7ea4c68000600b5566071afd498d0000600c556000600d55603c600e553480156200004a57600080fd5b506200006b6200005f6200007160201b60201c565b6200007960201b60201c565b6200013d565b600033905090565b60008060009054906101000a900473ffffffffffffffffffffffffffffffffffffffff169050816000806101000a81548173ffffffffffffffffffffffffffffffffffffffff021916908373ffffffffffffffffffffffffffffffffffffffff1602179055508173ffffffffffffffffffffffffffffffffffffffff168173ffffffffffffffffffffffffffffffffffffffff167f8be0079c531659141344cd1fd0a4f28419497f9722a3daafe3b4186f6b6457e060405160405180910390a35050565b6136d5806200014d6000396000f3fe60806040526004361061014b5760003560e01c80638da5cb5b116100b6578063cb10600b1161006f578063cb10600b14610458578063cc90978b14610481578063ccf670f8146104be578063dccc4f58146104e7578063eba73c7c14610524578063f2fde38b146105615761014b565b80638da5cb5b14610363578063a8d4a03b1461038e578063a9059cbb146103d3578063b2e6ceeb146103fc578063b9c9453114610425578063ca39e5ef1461042f5761014b565b80636352211e116101085780636352211e1461022957806370a0823114610266578063715018a6146102a3578063720c83d1146102ba5780637b0f0a19146102e5578063841dea7b146103225761014b565b806307c99f4e14610150578063095ea7b31461018d5780630ce90ec2146101b65780631a6fc0a4146101d25780633ccfd60b146101e9578063548598ce14610200575b600080fd5b34801561015c57600080fd5b50610177600480360381019061017291906127bb565b61058a565b6040516101849190612a79565b60405180910390f35b34801561019957600080fd5b506101b460048036038101906101af9190612ac7565b61087f565b005b6101d060048036038101906101cb9190612b07565b61097d565b005b3480156101de57600080fd5b506101e76109f2565b005b3480156101f557600080fd5b506101fe610ad6565b005b34801561020c57600080fd5b5061022760048036038101906102229190612b07565b610b27565b005b34801561023557600080fd5b50610250600480360381019061024b9190612b07565b610d7c565b60405161025d9190612b43565b60405180910390f35b34801561027257600080fd5b5061028d600480360381019061028891906127bb565b610db9565b60405161029a9190612b6d565b60405180910390f35b3480156102af57600080fd5b506102b8610e02565b005b3480156102c657600080fd5b506102cf610e16565b6040516102dc9190612a79565b60405180910390f35b3480156102f157600080fd5b5061030c60048036038101906103079190612b07565b611068565b6040516103199190612b43565b60405180910390f35b34801561032e57600080fd5b5061034960048036038101906103449190612b07565b61109b565b60405161035a959493929190612bc1565b60405180910390f35b34801561036f57600080fd5b50610378611118565b6040516103859190612b43565b60405180910390f35b34801561039a57600080fd5b506103b560048036038101906103b09190612b07565b611141565b6040516103ca99989796959493929190612c6d565b60405180910390f35b3480156103df57600080fd5b506103fa60048036038101906103f59190612ac7565b61127d565b005b34801561040857600080fd5b50610423600480360381019061041e9190612b07565b6112f9565b005b61042d611380565b005b34801561043b57600080fd5b5061045660048036038101906104519190612d01565b611398565b005b34801561046457600080fd5b5061047f600480360381019061047a9190612b07565b611748565b005b34801561048d57600080fd5b506104a860048036038101906104a39190612b07565b61175a565b6040516104b59190612b43565b60405180910390f35b3480156104ca57600080fd5b506104e560048036038101906104e09190612b07565b61178d565b005b3480156104f357600080fd5b5061050e600480360381019061050991906127bb565b61179f565b60405161051b9190612a79565b60405180910390f35b34801561053057600080fd5b5061054b600480360381019061054691906127bb565b611aa4565b6040516105589190612e67565b60405180910390f35b34801561056d57600080fd5b50610588600480360381019061058391906127bb565b611cee565b005b60606000600860008473ffffffffffffffffffffffffffffffffffffffff1673ffffffffffffffffffffffffffffffffffffffff1681526020019081526020016000205467ffffffffffffffff8111156105e7576105e6612e89565b5b60405190808252806020026020018201604052801561062057816020015b61060d6126b5565b8152602001906001900390816106055790505b5090506000805b600580549050811015610874578473ffffffffffffffffffffffffffffffffffffffff166007600083815260200190815260200160002060009054906101000a900473ffffffffffffffffffffffffffffffffffffffff1673ffffffffffffffffffffffffffffffffffffffff160361086157600581815481106106ae576106ad612eb8565b5b90600052602060002090600402016040518061012001604052908160008201548152602001600182015481526020016002820160009054906101000a900460ff1660ff1660ff1681526020016002820160019054906101000a900460ff1660ff1660ff1681526020016002820160029054906101000a900463ffffffff1663ffffffff1663ffffffff1681526020016002820160069054906101000a900463ffffffff1663ffffffff1663ffffffff16815260200160028201600a9054906101000a900461ffff1661ffff1661ffff16815260200160028201600c9054906101000a900461ffff1661ffff1661ffff1681526020016003820180546107b290612f16565b80601f01602080910402602001604051908101604052809291908181526020018280546107de90612f16565b801561082b5780601f106108005761010080835404028352916020019161082b565b820191906000526020600020905b81548152906001019060200180831161080e57829003601f168201915b50505050508152505083838151811061084757610846612eb8565b5b6020026020010181905250818061085d90612f76565b9250505b808061086c90612f76565b915050610627565b508192505050919050565b806007600082815260200190815260200160002060009054906101000a900473ffffffffffffffffffffffffffffffffffffffff1673ffffffffffffffffffffffffffffffffffffffff163373ffffffffffffffffffffffffffffffffffffffff16146108eb57600080fd5b82600f600084815260200190815260200160002060006101000a81548173ffffffffffffffffffffffffffffffffffffffff021916908373ffffffffffffffffffffffffffffffffffffffff1602179055507ff3d52c7cc5695b8378b286d8da225d87427a90a9553604ad56d9c3c3bd36367a33848460405161097093929190612fbe565b60405180910390a1505050565b600b54341461098b57600080fd5b6005818154811061099f5761099e612eb8565b5b9060005260206000209060040201600201600281819054906101000a900463ffffffff16809291906109d090612ff5565b91906101000a81548163ffffffff021916908363ffffffff1602179055505050565b6000600860003373ffffffffffffffffffffffffffffffffffffffff1673ffffffffffffffffffffffffffffffffffffffff1681526020019081526020016000205414610a3e57600080fd5b6000610a48611d71565b90506000606482610a599190613050565b9050606482610a689190613081565b91506000606483610a799190613050565b9050606483610a889190613081565b925060006040518060400160405280600e81526020017f457373656e6365206f6620476f640000000000000000000000000000000000008152509050610ad084848484611dcd565b50505050565b610ade612074565b3373ffffffffffffffffffffffffffffffffffffffff166108fc479081150290604051600060405180830381858888f19350505050158015610b24573d6000803e3d6000fd5b50565b806009600082815260200190815260200160002060009054906101000a900473ffffffffffffffffffffffffffffffffffffffff1673ffffffffffffffffffffffffffffffffffffffff163373ffffffffffffffffffffffffffffffffffffffff1614610b9357600080fd5b6000151560068381548110610bab57610baa612eb8565b5b906000526020600020906002020160010160069054906101000a900460ff161515148015610c1457504260068381548110610be957610be8612eb8565b5b906000526020600020906002020160010160029054906101000a900463ffffffff1663ffffffff1611155b610c1d57600080fd5b600160068381548110610c3357610c32612eb8565b5b906000526020600020906002020160010160066101000a81548160ff0219169083151502179055506000610c65611d71565b905061271081610c759190613081565b905060006040518060400160405280600b81526020017f53756d6d6f6e20436172640000000000000000000000000000000000000000008152509050610d218260068681548110610cc957610cc8612eb8565b5b906000526020600020906002020160010160009054906101000a900460ff1660068781548110610cfc57610cfb612eb8565b5b906000526020600020906002020160010160019054906101000a900460ff1684611dcd565b600a60003373ffffffffffffffffffffffffffffffffffffffff1673ffffffffffffffffffffffffffffffffffffffff1681526020019081526020016000206000815480929190610d71906130b2565b919050555050505050565b60006007600083815260200190815260200160002060009054906101000a900473ffffffffffffffffffffffffffffffffffffffff169050919050565b6000600860008373ffffffffffffffffffffffffffffffffffffffff1673ffffffffffffffffffffffffffffffffffffffff168152602001908152602001600020549050919050565b610e0a612074565b610e1460006120f2565b565b6060600060058054905067ffffffffffffffff811115610e3957610e38612e89565b5b604051908082528060200260200182016040528015610e7257816020015b610e5f6126b5565b815260200190600190039081610e575790505b5090506000805b60058054905081101561105f5760058181548110610e9a57610e99612eb8565b5b90600052602060002090600402016040518061012001604052908160008201548152602001600182015481526020016002820160009054906101000a900460ff1660ff1660ff1681526020016002820160019054906101000a900460ff1660ff1660ff1681526020016002820160029054906101000a900463ffffffff1663ffffffff1663ffffffff1681526020016002820160069054906101000a900463ffffffff1663ffffffff1663ffffffff16815260200160028201600a9054906101000a900461ffff1661ffff1661ffff16815260200160028201600c9054906101000a900461ffff1661ffff1661ffff168152602001600382018054610f9e90612f16565b80601f0160208091040260200160405190810160405280929190818152602001828054610fca90612f16565b80156110175780601f10610fec57610100808354040283529160200191611017565b820191906000526020600020905b815481529060010190602001808311610ffa57829003601f168201915b50505050508152505083838151811061103357611032612eb8565b5b6020026020010181905250818061104990612f76565b925050808061105790612f76565b915050610e79565b50819250505090565b60076020528060005260406000206000915054906101000a900473ffffffffffffffffffffffffffffffffffffffff1681565b600681815481106110ab57600080fd5b90600052602060002090600202016000915090508060000154908060010160009054906101000a900460ff16908060010160019054906101000a900460ff16908060010160029054906101000a900463ffffffff16908060010160069054906101000a900460ff16905085565b60008060009054906101000a900473ffffffffffffffffffffffffffffffffffffffff16905090565b6005818154811061115157600080fd5b90600052602060002090600402016000915090508060000154908060010154908060020160009054906101000a900460ff16908060020160019054906101000a900460ff16908060020160029054906101000a900463ffffffff16908060020160069054906101000a900463ffffffff169080600201600a9054906101000a900461ffff169080600201600c9054906101000a900461ffff16908060030180546111fa90612f16565b80601f016020809104026020016040519081016040528092919081815260200182805461122690612f16565b80156112735780601f1061124857610100808354040283529160200191611273565b820191906000526020600020905b81548152906001019060200180831161125657829003601f168201915b5050505050905089565b806007600082815260200190815260200160002060009054906101000a900473ffffffffffffffffffffffffffffffffffffffff1673ffffffffffffffffffffffffffffffffffffffff163373ffffffffffffffffffffffffffffffffffffffff16146112e957600080fd5b6112f43384846121b6565b505050565b3373ffffffffffffffffffffffffffffffffffffffff16600f600083815260200190815260200160002060009054906101000a900473ffffffffffffffffffffffffffffffffffffffff1673ffffffffffffffffffffffffffffffffffffffff161461136457600080fd5b600061136f82610d7c565b905061137c8133846121b6565b5050565b600c54341461138e57600080fd5b611396612374565b565b816007600082815260200190815260200160002060009054906101000a900473ffffffffffffffffffffffffffffffffffffffff1673ffffffffffffffffffffffffffffffffffffffff163373ffffffffffffffffffffffffffffffffffffffff161461140457600080fd5b61142e6005848154811061141b5761141a612eb8565b5b90600052602060002090600402016123c0565b801561143a5750818314155b80156114a557503373ffffffffffffffffffffffffffffffffffffffff166007600084815260200190815260200160002060009054906101000a900473ffffffffffffffffffffffffffffffffffffffff1673ffffffffffffffffffffffffffffffffffffffff1614155b6114ae57600080fd5b6000600584815481106114c4576114c3612eb8565b5b906000526020600020906004020190506000600584815481106114ea576114e9612eb8565b5b90600052602060002090600402019050600061150660646123e7565b9050600e5481116116505782600201600a81819054906101000a900461ffff1680929190611533906130db565b91906101000a81548161ffff021916908361ffff1602179055505082600201600281819054906101000a900463ffffffff168092919061157290612ff5565b91906101000a81548163ffffffff021916908363ffffffff1602179055505081600201600c81819054906101000a900461ffff16809291906115b3906130db565b91906101000a81548161ffff021916908361ffff160217905550506115d783612443565b7f193cb2f9cfa060ff0b24b2e7c8d336a12f7b2da48059a177d9f675e8c3db15ee866007600089815260200190815260200160002060009054906101000a900473ffffffffffffffffffffffffffffffffffffffff1660405161163b929190613105565b60405180910390a161164b612374565b611740565b82600201600c81819054906101000a900461ffff1680929190611672906130db565b91906101000a81548161ffff021916908361ffff1602179055505081600201600a81819054906101000a900461ffff16809291906116af906130db565b91906101000a81548161ffff021916908361ffff160217905550506116d383612443565b7f193cb2f9cfa060ff0b24b2e7c8d336a12f7b2da48059a177d9f675e8c3db15ee856007600088815260200190815260200160002060009054906101000a900473ffffffffffffffffffffffffffffffffffffffff16604051611737929190613105565b60405180910390a15b505050505050565b611750612074565b80600c8190555050565b60096020528060005260406000206000915054906101000a900473ffffffffffffffffffffffffffffffffffffffff1681565b611795612074565b80600b8190555050565b60606000600860008473ffffffffffffffffffffffffffffffffffffffff1673ffffffffffffffffffffffffffffffffffffffff168152602001908152602001600020546005805490506117f3919061312e565b67ffffffffffffffff81111561180c5761180b612e89565b5b60405190808252806020026020018201604052801561184557816020015b6118326126b5565b81526020019060019003908161182a5790505b5090506000805b600580549050811015611a99578473ffffffffffffffffffffffffffffffffffffffff166007600083815260200190815260200160002060009054906101000a900473ffffffffffffffffffffffffffffffffffffffff1673ffffffffffffffffffffffffffffffffffffffff1614611a8657600581815481106118d3576118d2612eb8565b5b90600052602060002090600402016040518061012001604052908160008201548152602001600182015481526020016002820160009054906101000a900460ff1660ff1660ff1681526020016002820160019054906101000a900460ff1660ff1660ff1681526020016002820160029054906101000a900463ffffffff1663ffffffff1663ffffffff1681526020016002820160069054906101000a900463ffffffff1663ffffffff1663ffffffff16815260200160028201600a9054906101000a900461ffff1661ffff1661ffff16815260200160028201600c9054906101000a900461ffff1661ffff1661ffff1681526020016003820180546119d790612f16565b80601f0160208091040260200160405190810160405280929190818152602001828054611a0390612f16565b8015611a505780601f10611a2557610100808354040283529160200191611a50565b820191906000526020600020905b815481529060010190602001808311611a3357829003601f168201915b505050505081525050838381518110611a6c57611a6b612eb8565b5b60200260200101819052508180611a8290612f76565b9250505b8080611a9190612f76565b91505061184c565b508192505050919050565b60606000600a60008473ffffffffffffffffffffffffffffffffffffffff1673ffffffffffffffffffffffffffffffffffffffff1681526020019081526020016000205467ffffffffffffffff811115611b0157611b00612e89565b5b604051908082528060200260200182016040528015611b3a57816020015b611b2761271b565b815260200190600190039081611b1f5790505b5090506000805b600680549050811015611ce3578473ffffffffffffffffffffffffffffffffffffffff166009600083815260200190815260200160002060009054906101000a900473ffffffffffffffffffffffffffffffffffffffff1673ffffffffffffffffffffffffffffffffffffffff16148015611bec575060068181548110611bcb57611bca612eb8565b5b906000526020600020906002020160010160069054906101000a900460ff16155b15611cd05760068181548110611c0557611c04612eb8565b5b90600052602060002090600202016040518060a0016040529081600082015481526020016001820160009054906101000a900460ff1660ff1660ff1681526020016001820160019054906101000a900460ff1660ff1660ff1681526020016001820160029054906101000a900463ffffffff1663ffffffff1663ffffffff1681526020016001820160069054906101000a900460ff161515151581525050838381518110611cb657611cb5612eb8565b5b60200260200101819052508180611ccc90612f76565b9250505b8080611cdb90612f76565b915050611b41565b508192505050919050565b611cf6612074565b600073ffffffffffffffffffffffffffffffffffffffff168173ffffffffffffffffffffffffffffffffffffffff1603611d65576040517f08c379a0000000000000000000000000000000000000000000000000000000008152600401611d5c906131d4565b60405180910390fd5b611d6e816120f2565b50565b600060046000815480929190611d8690612f76565b91905055506001544233600454604051602001611da59392919061325d565b6040516020818303038152906040528051906020012060001c611dc89190613050565b905090565b6000600580549050905060056040518061012001604052808381526020018781526020018660ff1681526020018560ff168152602001600163ffffffff16815260200160025442611e1e919061329a565b63ffffffff168152602001600061ffff168152602001600061ffff168152602001848152509080600181540180825580915050600190039060005260206000209060040201600090919091909150600082015181600001556020820151816001015560408201518160020160006101000a81548160ff021916908360ff16021790555060608201518160020160016101000a81548160ff021916908360ff16021790555060808201518160020160026101000a81548163ffffffff021916908363ffffffff16021790555060a08201518160020160066101000a81548163ffffffff021916908363ffffffff16021790555060c082015181600201600a6101000a81548161ffff021916908361ffff16021790555060e082015181600201600c6101000a81548161ffff021916908361ffff160217905550610100820151816003019081611f6c919061349c565b50505060006001600580549050611f83919061312e565b9050336007600083815260200190815260200160002060006101000a81548173ffffffffffffffffffffffffffffffffffffffff021916908373ffffffffffffffffffffffffffffffffffffffff160217905550600860003373ffffffffffffffffffffffffffffffffffffffff1673ffffffffffffffffffffffffffffffffffffffff168152602001908152602001600020600081548092919061202790612f76565b91905055507fb651534c6e8f3fa57920ac3ca9a93cefc5ba2a3f2fc70d64ba6e9e02a97865bd8187878760016040516120649594939291906135a9565b60405180910390a1505050505050565b61207c612476565b73ffffffffffffffffffffffffffffffffffffffff1661209a611118565b73ffffffffffffffffffffffffffffffffffffffff16146120f0576040517f08c379a00000000000000000000000000000000000000000000000000000000081526004016120e790613648565b60405180910390fd5b565b60008060009054906101000a900473ffffffffffffffffffffffffffffffffffffffff169050816000806101000a81548173ffffffffffffffffffffffffffffffffffffffff021916908373ffffffffffffffffffffffffffffffffffffffff1602179055508173ffffffffffffffffffffffffffffffffffffffff168173ffffffffffffffffffffffffffffffffffffffff167f8be0079c531659141344cd1fd0a4f28419497f9722a3daafe3b4186f6b6457e060405160405180910390a35050565b6122096001600860008573ffffffffffffffffffffffffffffffffffffffff1673ffffffffffffffffffffffffffffffffffffffff1681526020019081526020016000205461247e90919063ffffffff16565b600860008473ffffffffffffffffffffffffffffffffffffffff1673ffffffffffffffffffffffffffffffffffffffff1681526020019081526020016000208190555061229f6001600860003373ffffffffffffffffffffffffffffffffffffffff1673ffffffffffffffffffffffffffffffffffffffff1681526020019081526020016000205461249490919063ffffffff16565b600860003373ffffffffffffffffffffffffffffffffffffffff1673ffffffffffffffffffffffffffffffffffffffff16815260200190815260200160002081905550816007600083815260200190815260200160002060006101000a81548173ffffffffffffffffffffffffffffffffffffffff021916908373ffffffffffffffffffffffffffffffffffffffff1602179055507fa170301a3eaa747fe3afbb4de1c3601cf3dee8ef5a572fcb6aaca116cf42c8ee83838360405161236793929190612fbe565b60405180910390a1505050565b600061237e611d71565b9050600060648261238f9190613050565b905060648261239e9190613081565b915060006064836123af9190613050565b90506123bb82826124aa565b505050565b6000428260020160069054906101000a900463ffffffff1663ffffffff1611159050919050565b6000600d60008154809291906123fc90612f76565b91905055508142336004546040516020016124199392919061325d565b6040516020818303038152906040528051906020012060001c61243c9190613050565b9050919050565b60025442612451919061329a565b8160020160066101000a81548163ffffffff021916908363ffffffff16021790555050565b600033905090565b6000818361248c919061329a565b905092915050565b600081836124a2919061312e565b905092915050565b6000600680549050905060066040518060a001604052808381526020018560ff1681526020018460ff168152602001600354426124e7919061329a565b63ffffffff1681526020016000151581525090806001815401808255809150506001900390600052602060002090600202016000909190919091506000820151816000015560208201518160010160006101000a81548160ff021916908360ff16021790555060408201518160010160016101000a81548160ff021916908360ff16021790555060608201518160010160026101000a81548163ffffffff021916908363ffffffff16021790555060808201518160010160066101000a81548160ff0219169083151502179055505050600060016006805490506125cb919061312e565b9050336009600083815260200190815260200160002060006101000a81548173ffffffffffffffffffffffffffffffffffffffff021916908373ffffffffffffffffffffffffffffffffffffffff160217905550600a60003373ffffffffffffffffffffffffffffffffffffffff1673ffffffffffffffffffffffffffffffffffffffff168152602001908152602001600020600081548092919061266f90612f76565b91905055507f0322e1afa43f8c058c5c4022cf9732734caeb44ed878279c4fcea026453c471d8185856040516126a793929190613668565b60405180910390a150505050565b6040518061012001604052806000815260200160008152602001600060ff168152602001600060ff168152602001600063ffffffff168152602001600063ffffffff168152602001600061ffff168152602001600061ffff168152602001606081525090565b6040518060a0016040528060008152602001600060ff168152602001600060ff168152602001600063ffffffff1681526020016000151581525090565b600080fd5b600073ffffffffffffffffffffffffffffffffffffffff82169050919050565b60006127888261275d565b9050919050565b6127988161277d565b81146127a357600080fd5b50565b6000813590506127b58161278f565b92915050565b6000602082840312156127d1576127d0612758565b5b60006127df848285016127a6565b91505092915050565b600081519050919050565b600082825260208201905092915050565b6000819050602082019050919050565b6000819050919050565b61282781612814565b82525050565b600060ff82169050919050565b6128438161282d565b82525050565b600063ffffffff82169050919050565b61286281612849565b82525050565b600061ffff82169050919050565b61287f81612868565b82525050565b600081519050919050565b600082825260208201905092915050565b60005b838110156128bf5780820151818401526020810190506128a4565b838111156128ce576000848401525b50505050565b6000601f19601f8301169050919050565b60006128f082612885565b6128fa8185612890565b935061290a8185602086016128a1565b612913816128d4565b840191505092915050565b600061012083016000830151612937600086018261281e565b50602083015161294a602086018261281e565b50604083015161295d604086018261283a565b506060830151612970606086018261283a565b5060808301516129836080860182612859565b5060a083015161299660a0860182612859565b5060c08301516129a960c0860182612876565b5060e08301516129bc60e0860182612876565b506101008301518482036101008601526129d682826128e5565b9150508091505092915050565b60006129ef838361291e565b905092915050565b6000602082019050919050565b6000612a0f826127e8565b612a1981856127f3565b935083602082028501612a2b85612804565b8060005b85811015612a675784840389528151612a4885826129e3565b9450612a53836129f7565b925060208a01995050600181019050612a2f565b50829750879550505050505092915050565b60006020820190508181036000830152612a938184612a04565b905092915050565b612aa481612814565b8114612aaf57600080fd5b50565b600081359050612ac181612a9b565b92915050565b60008060408385031215612ade57612add612758565b5b6000612aec858286016127a6565b9250506020612afd85828601612ab2565b9150509250929050565b600060208284031215612b1d57612b1c612758565b5b6000612b2b84828501612ab2565b91505092915050565b612b3d8161277d565b82525050565b6000602082019050612b586000830184612b34565b92915050565b612b6781612814565b82525050565b6000602082019050612b826000830184612b5e565b92915050565b612b918161282d565b82525050565b612ba081612849565b82525050565b60008115159050919050565b612bbb81612ba6565b82525050565b600060a082019050612bd66000830188612b5e565b612be36020830187612b88565b612bf06040830186612b88565b612bfd6060830185612b97565b612c0a6080830184612bb2565b9695505050505050565b612c1d81612868565b82525050565b600082825260208201905092915050565b6000612c3f82612885565b612c498185612c23565b9350612c598185602086016128a1565b612c62816128d4565b840191505092915050565b600061012082019050612c83600083018c612b5e565b612c90602083018b612b5e565b612c9d604083018a612b88565b612caa6060830189612b88565b612cb76080830188612b97565b612cc460a0830187612b97565b612cd160c0830186612c14565b612cde60e0830185612c14565b818103610100830152612cf18184612c34565b90509a9950505050505050505050565b60008060408385031215612d1857612d17612758565b5b6000612d2685828601612ab2565b9250506020612d3785828601612ab2565b9150509250929050565b600081519050919050565b600082825260208201905092915050565b6000819050602082019050919050565b612d7681612ba6565b82525050565b60a082016000820151612d92600085018261281e565b506020820151612da5602085018261283a565b506040820151612db8604085018261283a565b506060820151612dcb6060850182612859565b506080820151612dde6080850182612d6d565b50505050565b6000612df08383612d7c565b60a08301905092915050565b6000602082019050919050565b6000612e1482612d41565b612e1e8185612d4c565b9350612e2983612d5d565b8060005b83811015612e5a578151612e418882612de4565b9750612e4c83612dfc565b925050600181019050612e2d565b5085935050505092915050565b60006020820190508181036000830152612e818184612e09565b905092915050565b7f4e487b7100000000000000000000000000000000000000000000000000000000600052604160045260246000fd5b7f4e487b7100000000000000000000000000000000000000000000000000000000600052603260045260246000fd5b7f4e487b7100000000000000000000000000000000000000000000000000000000600052602260045260246000fd5b60006002820490506001821680612f2e57607f821691505b602082108103612f4157612f40612ee7565b5b50919050565b7f4e487b7100000000000000000000000000000000000000000000000000000000600052601160045260246000fd5b6000612f8182612814565b91507fffffffffffffffffffffffffffffffffffffffffffffffffffffffffffffffff8203612fb357612fb2612f47565b5b600182019050919050565b6000606082019050612fd36000830186612b34565b612fe06020830185612b34565b612fed6040830184612b5e565b949350505050565b600061300082612849565b915063ffffffff820361301657613015612f47565b5b600182019050919050565b7f4e487b7100000000000000000000000000000000000000000000000000000000600052601260045260246000fd5b600061305b82612814565b915061306683612814565b92508261307657613075613021565b5b828206905092915050565b600061308c82612814565b915061309783612814565b9250826130a7576130a6613021565b5b828204905092915050565b60006130bd82612814565b9150600082036130d0576130cf612f47565b5b600182039050919050565b60006130e682612868565b915061ffff82036130fa576130f9612f47565b5b600182019050919050565b600060408201905061311a6000830185612b5e565b6131276020830184612b34565b9392505050565b600061313982612814565b915061314483612814565b92508282101561315757613156612f47565b5b828203905092915050565b7f4f776e61626c653a206e6577206f776e657220697320746865207a65726f206160008201527f6464726573730000000000000000000000000000000000000000000000000000602082015250565b60006131be602683612c23565b91506131c982613162565b604082019050919050565b600060208201905081810360008301526131ed816131b1565b9050919050565b6000819050919050565b61320f61320a82612814565b6131f4565b82525050565b60008160601b9050919050565b600061322d82613215565b9050919050565b600061323f82613222565b9050919050565b6132576132528261277d565b613234565b82525050565b600061326982866131fe565b6020820191506132798285613246565b60148201915061328982846131fe565b602082019150819050949350505050565b60006132a582612814565b91506132b083612814565b9250827fffffffffffffffffffffffffffffffffffffffffffffffffffffffffffffffff038211156132e5576132e4612f47565b5b828201905092915050565b60008190508160005260206000209050919050565b60006020601f8301049050919050565b600082821b905092915050565b6000600883026133527fffffffffffffffffffffffffffffffffffffffffffffffffffffffffffffffff82613315565b61335c8683613315565b95508019841693508086168417925050509392505050565b6000819050919050565b600061339961339461338f84612814565b613374565b612814565b9050919050565b6000819050919050565b6133b38361337e565b6133c76133bf826133a0565b848454613322565b825550505050565b600090565b6133dc6133cf565b6133e78184846133aa565b505050565b5b8181101561340b576134006000826133d4565b6001810190506133ed565b5050565b601f82111561345057613421816132f0565b61342a84613305565b81016020851015613439578190505b61344d61344585613305565b8301826133ec565b50505b505050565b600082821c905092915050565b600061347360001984600802613455565b1980831691505092915050565b600061348c8383613462565b9150826002028217905092915050565b6134a582612885565b67ffffffffffffffff8111156134be576134bd612e89565b5b6134c88254612f16565b6134d382828561340f565b600060209050601f83116001811461350657600084156134f4578287015190505b6134fe8582613480565b865550613566565b601f198416613514866132f0565b60005b8281101561353c57848901518255600182019150602085019450602081019050613517565b868310156135595784890151613555601f891682613462565b8355505b6001600288020188555050505b505050505050565b6000819050919050565b600061359361358e6135898461356e565b613374565b612849565b9050919050565b6135a381613578565b82525050565b600060a0820190506135be6000830188612b5e565b6135cb6020830187612b5e565b6135d86040830186612b88565b6135e56060830185612b88565b6135f2608083018461359a565b9695505050505050565b7f4f776e61626c653a2063616c6c6572206973206e6f7420746865206f776e6572600082015250565b6000613632602083612c23565b915061363d826135fc565b602082019050919050565b6000602082019050818103600083015261366181613625565b9050919050565b600060608201905061367d6000830186612b5e565b61368a6020830185612b88565b6136976040830184612b88565b94935050505056fea2646970667358221220972400be6e657420e01036a88b424421679448be4b7c87355cff5e4a3aadf67b64736f6c634300080f0033",
  "immutableReferences": {},
  "source": "// SPDX-License-Identifier: MIT\r\npragma solidity >=0.4.22 <0.9.0;\r\n\r\nimport \"./HeroOwnership.sol\";\r\n\r\n/// @title HeroWorld \r\n/// @author Rohit Kodam\r\n/// @notice Main File to deploy with AppName.\r\ncontract HeroWorld is HeroOwnership{\r\n\r\n}",
  "sourcePath": "C:\\Users\\kisan\\Desktop\\Hero-World-with-no-Villian\\backend\\contracts\\HeroWorld.sol",
  "compiler": {
    "name": "solc",
    "version": "0.8.15+commit.e14f2714.Emscripten.clang"
  },
  "schemaVersion": "3.4.8",
  "updatedAt": "2022-08-06T19:23:29.009Z",
  "networkType": "ethereum",
  "devdoc": {
    "author": "Rohit Kodam",
    "kind": "dev",
    "methods": {
      "owner()": {
        "details": "Returns the address of the current owner."
      },
      "renounceOwnership()": {
        "details": "Leaves the contract without owner. It will not be possible to call `onlyOwner` functions anymore. Can only be called by the current owner. NOTE: Renouncing ownership will leave the contract without an owner, thereby removing any functionality that is only available to the owner."
      },
      "transferOwnership(address)": {
        "details": "Transfers ownership of the contract to a new account (`newOwner`). Can only be called by the current owner."
      }
    },
    "title": "HeroWorld ",
    "version": 1
  },
  "userdoc": {
    "events": {
      "HeroCreated(uint256,uint256,uint8,uint8,uint32)": {
        "notice": "events for creation of Heroes, SummonCards."
      },
      "TransferSuccess(address,address,uint256)": {
        "notice": "events for Transfer, Approvals for transfer."
      }
    },
    "kind": "user",
    "methods": {
      "approve(address,uint256)": {
        "notice": "approve function only Owner can use to approve others to takeOwnership of a Hero."
      },
      "balanceOf(address)": {
        "notice": "gives total number of heroes."
      },
      "fight(uint256,uint256)": {
        "notice": "determines the winner of the fight/duel between two heroes."
      },
      "generateRandomHero()": {
        "notice": "creates the first hero of a player."
      },
      "getAllHeroes()": {
        "notice": "gets all heroes by a owner."
      },
      "getCardsByOwner(address)": {
        "notice": "gets all cards by a owner."
      },
      "getHeroesByOthers(address)": {
        "notice": "gets others heroes all."
      },
      "getHeroesByOwner(address)": {
        "notice": "gets all heroes by a owner."
      },
      "levelUp(uint256)": {
        "notice": "levels up the hero"
      },
      "ownerOf(uint256)": {
        "notice": "gives owner of a Hero."
      },
      "purchaseCard()": {
        "notice": "purchases a summonCard."
      },
      "setLevelUpFee(uint256)": {
        "notice": "sets fees."
      },
      "takeOwnership(uint256)": {
        "notice": "approved address can use it to takeOwnership of a Hero."
      },
      "transfer(address,uint256)": {
        "notice": "transfer function only Owner can use"
      },
      "useSummoningCard(uint256)": {
        "notice": "uses the summon card to create a hero."
      },
      "withdraw()": {
        "notice": "withdraws the balance of the contract."
      }
    },
    "notice": "Main File to deploy with AppName.",
    "version": 1
  }
}