{
  "contractName": "HeroWorld",
  "abi": [
    {
      "anonymous": false,
      "inputs": [
        {
          "indexed": false,
          "internalType": "address",
          "name": "_from",
          "type": "address"
        },
        {
          "indexed": false,
          "internalType": "address",
          "name": "_to",
          "type": "address"
        },
        {
          "indexed": false,
          "internalType": "uint256",
          "name": "_tokenId",
          "type": "uint256"
        }
      ],
      "name": "ApprovalSuccess",
      "type": "event"
    },
    {
      "anonymous": false,
      "inputs": [
        {
          "indexed": false,
          "internalType": "uint256",
          "name": "heroId",
          "type": "uint256"
        },
        {
          "indexed": false,
          "internalType": "address",
          "name": "owner",
          "type": "address"
        }
      ],
      "name": "FightResult",
      "type": "event"
    },
    {
      "anonymous": false,
      "inputs": [
        {
          "indexed": false,
          "internalType": "uint256",
          "name": "heroId",
          "type": "uint256"
        },
        {
          "indexed": false,
          "internalType": "uint256",
          "name": "dna",
          "type": "uint256"
        },
        {
          "indexed": false,
          "internalType": "uint8",
          "name": "species",
          "type": "uint8"
        },
        {
          "indexed": false,
          "internalType": "uint8",
          "name": "rarity",
          "type": "uint8"
        },
        {
          "indexed": false,
          "internalType": "uint32",
          "name": "level",
          "type": "uint32"
        }
      ],
      "name": "HeroCreated",
      "type": "event"
    },
    {
      "anonymous": false,
      "inputs": [
        {
          "indexed": true,
          "internalType": "address",
          "name": "previousOwner",
          "type": "address"
        },
        {
          "indexed": true,
          "internalType": "address",
          "name": "newOwner",
          "type": "address"
        }
      ],
      "name": "OwnershipTransferred",
      "type": "event"
    },
    {
      "anonymous": false,
      "inputs": [
        {
          "indexed": false,
          "internalType": "uint256",
          "name": "cardId",
          "type": "uint256"
        },
        {
          "indexed": false,
          "internalType": "uint8",
          "name": "species",
          "type": "uint8"
        },
        {
          "indexed": false,
          "internalType": "uint8",
          "name": "rarity",
          "type": "uint8"
        }
      ],
      "name": "SummonCardCreated",
      "type": "event"
    },
    {
      "anonymous": false,
      "inputs": [
        {
          "indexed": false,
          "internalType": "address",
          "name": "_from",
          "type": "address"
        },
        {
          "indexed": false,
          "internalType": "address",
          "name": "_to",
          "type": "address"
        },
        {
          "indexed": false,
          "internalType": "uint256",
          "name": "_tokenId",
          "type": "uint256"
        }
      ],
      "name": "TransferSuccess",
      "type": "event"
    },
    {
      "inputs": [
        {
          "internalType": "address",
          "name": "_to",
          "type": "address"
        },
        {
          "internalType": "uint256",
          "name": "_tokenId",
          "type": "uint256"
        }
      ],
      "name": "approve",
      "outputs": [],
      "stateMutability": "nonpayable",
      "type": "function"
    },
    {
      "inputs": [
        {
          "internalType": "address",
          "name": "_owner",
          "type": "address"
        }
      ],
      "name": "balanceOf",
      "outputs": [
        {
          "internalType": "uint256",
          "name": "_balance",
          "type": "uint256"
        }
      ],
      "stateMutability": "view",
      "type": "function"
    },
    {
      "inputs": [
        {
          "internalType": "uint256",
          "name": "_heroId",
          "type": "uint256"
        },
        {
          "internalType": "uint256",
          "name": "_targetId",
          "type": "uint256"
        }
      ],
      "name": "fight",
      "outputs": [],
      "stateMutability": "nonpayable",
      "type": "function"
    },
    {
      "inputs": [],
      "name": "generateRandomHero",
      "outputs": [],
      "stateMutability": "nonpayable",
      "type": "function"
    },
    {
      "inputs": [],
      "name": "getAllHeroes",
      "outputs": [
        {
          "components": [
            {
              "internalType": "uint256",
              "name": "dna",
              "type": "uint256"
            },
            {
              "internalType": "uint8",
              "name": "species",
              "type": "uint8"
            },
            {
              "internalType": "uint8",
              "name": "rarity",
              "type": "uint8"
            },
            {
              "internalType": "uint32",
              "name": "level",
              "type": "uint32"
            },
            {
              "internalType": "uint32",
              "name": "readyTime",
              "type": "uint32"
            },
            {
              "internalType": "uint16",
              "name": "winCount",
              "type": "uint16"
            },
            {
              "internalType": "uint16",
              "name": "lossCount",
              "type": "uint16"
            },
            {
              "internalType": "string",
              "name": "summonType",
              "type": "string"
            }
          ],
          "internalType": "struct HeroFactory.Hero[]",
          "name": "",
          "type": "tuple[]"
        }
      ],
      "stateMutability": "view",
      "type": "function"
    },
    {
      "inputs": [
        {
          "internalType": "address",
          "name": "_owner",
          "type": "address"
        }
      ],
      "name": "getCardsByOwner",
      "outputs": [
        {
          "components": [
            {
              "internalType": "uint8",
              "name": "species",
              "type": "uint8"
            },
            {
              "internalType": "uint8",
              "name": "rarity",
              "type": "uint8"
            },
            {
              "internalType": "uint32",
              "name": "readyTime",
              "type": "uint32"
            },
            {
              "internalType": "bool",
              "name": "used",
              "type": "bool"
            }
          ],
          "internalType": "struct HeroFactory.SummonCard[]",
          "name": "",
          "type": "tuple[]"
        }
      ],
      "stateMutability": "view",
      "type": "function"
    },
    {
      "inputs": [
        {
          "internalType": "address",
          "name": "_owner",
          "type": "address"
        }
      ],
      "name": "getHeroesByOwner",
      "outputs": [
        {
          "components": [
            {
              "internalType": "uint256",
              "name": "dna",
              "type": "uint256"
            },
            {
              "internalType": "uint8",
              "name": "species",
              "type": "uint8"
            },
            {
              "internalType": "uint8",
              "name": "rarity",
              "type": "uint8"
            },
            {
              "internalType": "uint32",
              "name": "level",
              "type": "uint32"
            },
            {
              "internalType": "uint32",
              "name": "readyTime",
              "type": "uint32"
            },
            {
              "internalType": "uint16",
              "name": "winCount",
              "type": "uint16"
            },
            {
              "internalType": "uint16",
              "name": "lossCount",
              "type": "uint16"
            },
            {
              "internalType": "string",
              "name": "summonType",
              "type": "string"
            }
          ],
          "internalType": "struct HeroFactory.Hero[]",
          "name": "",
          "type": "tuple[]"
        }
      ],
      "stateMutability": "view",
      "type": "function"
    },
    {
      "inputs": [
        {
          "internalType": "uint256",
          "name": "",
          "type": "uint256"
        }
      ],
      "name": "heroToOwner",
      "outputs": [
        {
          "internalType": "address",
          "name": "",
          "type": "address"
        }
      ],
      "stateMutability": "view",
      "type": "function"
    },
    {
      "inputs": [
        {
          "internalType": "uint256",
          "name": "",
          "type": "uint256"
        }
      ],
      "name": "heroes",
      "outputs": [
        {
          "internalType": "uint256",
          "name": "dna",
          "type": "uint256"
        },
        {
          "internalType": "uint8",
          "name": "species",
          "type": "uint8"
        },
        {
          "internalType": "uint8",
          "name": "rarity",
          "type": "uint8"
        },
        {
          "internalType": "uint32",
          "name": "level",
          "type": "uint32"
        },
        {
          "internalType": "uint32",
          "name": "readyTime",
          "type": "uint32"
        },
        {
          "internalType": "uint16",
          "name": "winCount",
          "type": "uint16"
        },
        {
          "internalType": "uint16",
          "name": "lossCount",
          "type": "uint16"
        },
        {
          "internalType": "string",
          "name": "summonType",
          "type": "string"
        }
      ],
      "stateMutability": "view",
      "type": "function"
    },
    {
      "inputs": [
        {
          "internalType": "uint256",
          "name": "_HeroId",
          "type": "uint256"
        }
      ],
      "name": "levelUp",
      "outputs": [],
      "stateMutability": "payable",
      "type": "function"
    },
    {
      "inputs": [],
      "name": "owner",
      "outputs": [
        {
          "internalType": "address",
          "name": "",
          "type": "address"
        }
      ],
      "stateMutability": "view",
      "type": "function"
    },
    {
      "inputs": [
        {
          "internalType": "uint256",
          "name": "_tokenId",
          "type": "uint256"
        }
      ],
      "name": "ownerOf",
      "outputs": [
        {
          "internalType": "address",
          "name": "_owner",
          "type": "address"
        }
      ],
      "stateMutability": "view",
      "type": "function"
    },
    {
      "inputs": [],
      "name": "purchaseCard",
      "outputs": [],
      "stateMutability": "payable",
      "type": "function"
    },
    {
      "inputs": [],
      "name": "renounceOwnership",
      "outputs": [],
      "stateMutability": "nonpayable",
      "type": "function"
    },
    {
      "inputs": [
        {
          "internalType": "uint256",
          "name": "_fee",
          "type": "uint256"
        }
      ],
      "name": "setCardPurchaseFee",
      "outputs": [],
      "stateMutability": "nonpayable",
      "type": "function"
    },
    {
      "inputs": [
        {
          "internalType": "uint256",
          "name": "_fee",
          "type": "uint256"
        }
      ],
      "name": "setLevelUpFee",
      "outputs": [],
      "stateMutability": "nonpayable",
      "type": "function"
    },
    {
      "inputs": [
        {
          "internalType": "uint256",
          "name": "",
          "type": "uint256"
        }
      ],
      "name": "summonCardToOwner",
      "outputs": [
        {
          "internalType": "address",
          "name": "",
          "type": "address"
        }
      ],
      "stateMutability": "view",
      "type": "function"
    },
    {
      "inputs": [
        {
          "internalType": "uint256",
          "name": "",
          "type": "uint256"
        }
      ],
      "name": "summonCards",
      "outputs": [
        {
          "internalType": "uint8",
          "name": "species",
          "type": "uint8"
        },
        {
          "internalType": "uint8",
          "name": "rarity",
          "type": "uint8"
        },
        {
          "internalType": "uint32",
          "name": "readyTime",
          "type": "uint32"
        },
        {
          "internalType": "bool",
          "name": "used",
          "type": "bool"
        }
      ],
      "stateMutability": "view",
      "type": "function"
    },
    {
      "inputs": [
        {
          "internalType": "uint256",
          "name": "_tokenId",
          "type": "uint256"
        }
      ],
      "name": "takeOwnership",
      "outputs": [],
      "stateMutability": "nonpayable",
      "type": "function"
    },
    {
      "inputs": [
        {
          "internalType": "address",
          "name": "_to",
          "type": "address"
        },
        {
          "internalType": "uint256",
          "name": "_tokenId",
          "type": "uint256"
        }
      ],
      "name": "transfer",
      "outputs": [],
      "stateMutability": "nonpayable",
      "type": "function"
    },
    {
      "inputs": [
        {
          "internalType": "address",
          "name": "newOwner",
          "type": "address"
        }
      ],
      "name": "transferOwnership",
      "outputs": [],
      "stateMutability": "nonpayable",
      "type": "function"
    },
    {
      "inputs": [
        {
          "internalType": "uint256",
          "name": "_id",
          "type": "uint256"
        }
      ],
      "name": "useSummoningCard",
      "outputs": [],
      "stateMutability": "nonpayable",
      "type": "function"
    },
    {
      "inputs": [],
      "name": "withdraw",
      "outputs": [],
      "stateMutability": "nonpayable",
      "type": "function"
    }
  ],
  "bytecode": "0x6080604052655af3107a4000600155620151806002556202a300600355600060045566038d7ea4c68000600b5566071afd498d0000600c556000600d55603c600e553480156200004e57600080fd5b506200006f620000636200007560201b60201c565b6200007d60201b60201c565b62000141565b600033905090565b60008060009054906101000a900473ffffffffffffffffffffffffffffffffffffffff169050816000806101000a81548173ffffffffffffffffffffffffffffffffffffffff021916908373ffffffffffffffffffffffffffffffffffffffff1602179055508173ffffffffffffffffffffffffffffffffffffffff168173ffffffffffffffffffffffffffffffffffffffff167f8be0079c531659141344cd1fd0a4f28419497f9722a3daafe3b4186f6b6457e060405160405180910390a35050565b61311780620001516000396000f3fe6080604052600436106101405760003560e01c8063841dea7b116100b6578063ca39e5ef1161006f578063ca39e5ef14610422578063cb10600b1461044b578063cc90978b14610474578063ccf670f8146104b1578063eba73c7c146104da578063f2fde38b1461051757610140565b8063841dea7b146103175780638da5cb5b14610357578063a8d4a03b14610382578063a9059cbb146103c6578063b2e6ceeb146103ef578063b9c945311461041857610140565b8063548598ce11610108578063548598ce146101f55780636352211e1461021e57806370a082311461025b578063715018a614610298578063720c83d1146102af5780637b0f0a19146102da57610140565b806307c99f4e14610145578063095ea7b3146101825780630ce90ec2146101ab5780631a6fc0a4146101c75780633ccfd60b146101de575b600080fd5b34801561015157600080fd5b5061016c6004803603810190610167919061226b565b610540565b6040516101799190612514565b60405180910390f35b34801561018e57600080fd5b506101a960048036038101906101a49190612562565b61082b565b005b6101c560048036038101906101c091906125a2565b610929565b005b3480156101d357600080fd5b506101dc61099e565b005b3480156101ea57600080fd5b506101f3610a82565b005b34801561020157600080fd5b5061021c600480360381019061021791906125a2565b610ad3565b005b34801561022a57600080fd5b50610245600480360381019061024091906125a2565b610cbf565b60405161025291906125de565b60405180910390f35b34801561026757600080fd5b50610282600480360381019061027d919061226b565b610cfc565b60405161028f9190612608565b60405180910390f35b3480156102a457600080fd5b506102ad610d45565b005b3480156102bb57600080fd5b506102c4610d59565b6040516102d19190612514565b60405180910390f35b3480156102e657600080fd5b5061030160048036038101906102fc91906125a2565b610fa1565b60405161030e91906125de565b60405180910390f35b34801561032357600080fd5b5061033e600480360381019061033991906125a2565b610fd4565b60405161034e949392919061265c565b60405180910390f35b34801561036357600080fd5b5061036c611047565b60405161037991906125de565b60405180910390f35b34801561038e57600080fd5b506103a960048036038101906103a491906125a2565b611070565b6040516103bd9897969594939291906126fa565b60405180910390f35b3480156103d257600080fd5b506103ed60048036038101906103e89190612562565b6111a6565b005b3480156103fb57600080fd5b50610416600480360381019061041191906125a2565b611222565b005b6104206112a9565b005b34801561042e57600080fd5b506104496004803603810190610444919061277f565b6112c1565b005b34801561045757600080fd5b50610472600480360381019061046d91906125a2565b6115c7565b005b34801561048057600080fd5b5061049b600480360381019061049691906125a2565b6115d9565b6040516104a891906125de565b60405180910390f35b3480156104bd57600080fd5b506104d860048036038101906104d391906125a2565b61160c565b005b3480156104e657600080fd5b5061050160048036038101906104fc919061226b565b61161e565b60405161050e91906128d2565b60405180910390f35b34801561052357600080fd5b5061053e6004803603810190610539919061226b565b61181d565b005b60606000600860008473ffffffffffffffffffffffffffffffffffffffff1673ffffffffffffffffffffffffffffffffffffffff1681526020019081526020016000205467ffffffffffffffff81111561059d5761059c6128f4565b5b6040519080825280602002602001820160405280156105d657816020015b6105c3612173565b8152602001906001900390816105bb5790505b5090506000805b600580549050811015610820578473ffffffffffffffffffffffffffffffffffffffff166007600083815260200190815260200160002060009054906101000a900473ffffffffffffffffffffffffffffffffffffffff1673ffffffffffffffffffffffffffffffffffffffff160361080d576005818154811061066457610663612923565b5b906000526020600020906003020160405180610100016040529081600082015481526020016001820160009054906101000a900460ff1660ff1660ff1681526020016001820160019054906101000a900460ff1660ff1660ff1681526020016001820160029054906101000a900463ffffffff1663ffffffff1663ffffffff1681526020016001820160069054906101000a900463ffffffff1663ffffffff1663ffffffff16815260200160018201600a9054906101000a900461ffff1661ffff1661ffff16815260200160018201600c9054906101000a900461ffff1661ffff1661ffff16815260200160028201805461075e90612981565b80601f016020809104026020016040519081016040528092919081815260200182805461078a90612981565b80156107d75780601f106107ac576101008083540402835291602001916107d7565b820191906000526020600020905b8154815290600101906020018083116107ba57829003601f168201915b5050505050815250508383815181106107f3576107f2612923565b5b60200260200101819052508180610809906129e1565b9250505b8080610818906129e1565b9150506105dd565b508192505050919050565b806007600082815260200190815260200160002060009054906101000a900473ffffffffffffffffffffffffffffffffffffffff1673ffffffffffffffffffffffffffffffffffffffff163373ffffffffffffffffffffffffffffffffffffffff161461089757600080fd5b82600f600084815260200190815260200160002060006101000a81548173ffffffffffffffffffffffffffffffffffffffff021916908373ffffffffffffffffffffffffffffffffffffffff1602179055507ff3d52c7cc5695b8378b286d8da225d87427a90a9553604ad56d9c3c3bd36367a33848460405161091c93929190612a29565b60405180910390a1505050565b600b54341461093757600080fd5b6005818154811061094b5761094a612923565b5b9060005260206000209060030201600101600281819054906101000a900463ffffffff168092919061097c90612a60565b91906101000a81548163ffffffff021916908363ffffffff1602179055505050565b6000600860003373ffffffffffffffffffffffffffffffffffffffff1673ffffffffffffffffffffffffffffffffffffffff16815260200190815260200160002054146109ea57600080fd5b60006109f46118a0565b90506000606482610a059190612abb565b9050606482610a149190612aec565b91506000606483610a259190612abb565b9050606483610a349190612aec565b925060006040518060400160405280600e81526020017f457373656e6365206f6620476f640000000000000000000000000000000000008152509050610a7c848484846118fc565b50505050565b610a8a611b87565b3373ffffffffffffffffffffffffffffffffffffffff166108fc479081150290604051600060405180830381858888f19350505050158015610ad0573d6000803e3d6000fd5b50565b806009600082815260200190815260200160002060009054906101000a900473ffffffffffffffffffffffffffffffffffffffff1673ffffffffffffffffffffffffffffffffffffffff163373ffffffffffffffffffffffffffffffffffffffff1614610b3f57600080fd5b6000151560068381548110610b5757610b56612923565b5b9060005260206000200160000160069054906101000a900460ff161515148015610bb857504260068381548110610b9157610b90612923565b5b9060005260206000200160000160029054906101000a900463ffffffff1663ffffffff1611155b610bc157600080fd5b600160068381548110610bd757610bd6612923565b5b9060005260206000200160000160066101000a81548160ff0219169083151502179055506000610c056118a0565b905061271081610c159190612aec565b905060006040518060400160405280600b81526020017f53756d6d6f6e20436172640000000000000000000000000000000000000000008152509050610cb98260068681548110610c6957610c68612923565b5b9060005260206000200160000160009054906101000a900460ff1660068781548110610c9857610c97612923565b5b9060005260206000200160000160019054906101000a900460ff16846118fc565b50505050565b60006007600083815260200190815260200160002060009054906101000a900473ffffffffffffffffffffffffffffffffffffffff169050919050565b6000600860008373ffffffffffffffffffffffffffffffffffffffff1673ffffffffffffffffffffffffffffffffffffffff168152602001908152602001600020549050919050565b610d4d611b87565b610d576000611c05565b565b6060600060058054905067ffffffffffffffff811115610d7c57610d7b6128f4565b5b604051908082528060200260200182016040528015610db557816020015b610da2612173565b815260200190600190039081610d9a5790505b5090506000805b600580549050811015610f985760058181548110610ddd57610ddc612923565b5b906000526020600020906003020160405180610100016040529081600082015481526020016001820160009054906101000a900460ff1660ff1660ff1681526020016001820160019054906101000a900460ff1660ff1660ff1681526020016001820160029054906101000a900463ffffffff1663ffffffff1663ffffffff1681526020016001820160069054906101000a900463ffffffff1663ffffffff1663ffffffff16815260200160018201600a9054906101000a900461ffff1661ffff1661ffff16815260200160018201600c9054906101000a900461ffff1661ffff1661ffff168152602001600282018054610ed790612981565b80601f0160208091040260200160405190810160405280929190818152602001828054610f0390612981565b8015610f505780601f10610f2557610100808354040283529160200191610f50565b820191906000526020600020905b815481529060010190602001808311610f3357829003601f168201915b505050505081525050838381518110610f6c57610f6b612923565b5b60200260200101819052508180610f82906129e1565b9250508080610f90906129e1565b915050610dbc565b50819250505090565b60076020528060005260406000206000915054906101000a900473ffffffffffffffffffffffffffffffffffffffff1681565b60068181548110610fe457600080fd5b906000526020600020016000915090508060000160009054906101000a900460ff16908060000160019054906101000a900460ff16908060000160029054906101000a900463ffffffff16908060000160069054906101000a900460ff16905084565b60008060009054906101000a900473ffffffffffffffffffffffffffffffffffffffff16905090565b6005818154811061108057600080fd5b90600052602060002090600302016000915090508060000154908060010160009054906101000a900460ff16908060010160019054906101000a900460ff16908060010160029054906101000a900463ffffffff16908060010160069054906101000a900463ffffffff169080600101600a9054906101000a900461ffff169080600101600c9054906101000a900461ffff169080600201805461112390612981565b80601f016020809104026020016040519081016040528092919081815260200182805461114f90612981565b801561119c5780601f106111715761010080835404028352916020019161119c565b820191906000526020600020905b81548152906001019060200180831161117f57829003601f168201915b5050505050905088565b806007600082815260200190815260200160002060009054906101000a900473ffffffffffffffffffffffffffffffffffffffff1673ffffffffffffffffffffffffffffffffffffffff163373ffffffffffffffffffffffffffffffffffffffff161461121257600080fd5b61121d338484611cc9565b505050565b3373ffffffffffffffffffffffffffffffffffffffff16600f600083815260200190815260200160002060009054906101000a900473ffffffffffffffffffffffffffffffffffffffff1673ffffffffffffffffffffffffffffffffffffffff161461128d57600080fd5b600061129882610cbf565b90506112a5813384611cc9565b5050565b600c5434146112b757600080fd5b6112bf611e87565b565b816007600082815260200190815260200160002060009054906101000a900473ffffffffffffffffffffffffffffffffffffffff1673ffffffffffffffffffffffffffffffffffffffff163373ffffffffffffffffffffffffffffffffffffffff161461132d57600080fd5b60006005848154811061134357611342612923565b5b9060005260206000209060030201905060006005848154811061136957611368612923565b5b9060005260206000209060030201905060006113856064611ec4565b9050600e5481116114cf5782600101600a81819054906101000a900461ffff16809291906113b290612b1d565b91906101000a81548161ffff021916908361ffff1602179055505082600101600281819054906101000a900463ffffffff16809291906113f190612a60565b91906101000a81548163ffffffff021916908363ffffffff1602179055505081600101600c81819054906101000a900461ffff168092919061143290612b1d565b91906101000a81548161ffff021916908361ffff1602179055505061145683611f20565b7f193cb2f9cfa060ff0b24b2e7c8d336a12f7b2da48059a177d9f675e8c3db15ee866007600089815260200190815260200160002060009054906101000a900473ffffffffffffffffffffffffffffffffffffffff166040516114ba929190612b47565b60405180910390a16114ca611e87565b6115bf565b82600101600c81819054906101000a900461ffff16809291906114f190612b1d565b91906101000a81548161ffff021916908361ffff1602179055505081600101600a81819054906101000a900461ffff168092919061152e90612b1d565b91906101000a81548161ffff021916908361ffff1602179055505061155283611f20565b7f193cb2f9cfa060ff0b24b2e7c8d336a12f7b2da48059a177d9f675e8c3db15ee856007600088815260200190815260200160002060009054906101000a900473ffffffffffffffffffffffffffffffffffffffff166040516115b6929190612b47565b60405180910390a15b505050505050565b6115cf611b87565b80600c8190555050565b60096020528060005260406000206000915054906101000a900473ffffffffffffffffffffffffffffffffffffffff1681565b611614611b87565b80600b8190555050565b60606000600a60008473ffffffffffffffffffffffffffffffffffffffff1673ffffffffffffffffffffffffffffffffffffffff1681526020019081526020016000205467ffffffffffffffff81111561167b5761167a6128f4565b5b6040519080825280602002602001820160405280156116b457816020015b6116a16121d2565b8152602001906001900390816116995790505b5090506000805b600680549050811015611812578473ffffffffffffffffffffffffffffffffffffffff166009600083815260200190815260200160002060009054906101000a900473ffffffffffffffffffffffffffffffffffffffff1673ffffffffffffffffffffffffffffffffffffffff16036117ff576006818154811061174257611741612923565b5b906000526020600020016040518060800160405290816000820160009054906101000a900460ff1660ff1660ff1681526020016000820160019054906101000a900460ff1660ff1660ff1681526020016000820160029054906101000a900463ffffffff1663ffffffff1663ffffffff1681526020016000820160069054906101000a900460ff1615151515815250508383815181106117e5576117e4612923565b5b602002602001018190525081806117fb906129e1565b9250505b808061180a906129e1565b9150506116bb565b508192505050919050565b611825611b87565b600073ffffffffffffffffffffffffffffffffffffffff168173ffffffffffffffffffffffffffffffffffffffff1603611894576040517f08c379a000000000000000000000000000000000000000000000000000000000815260040161188b90612be2565b60405180910390fd5b61189d81611c05565b50565b6000600460008154809291906118b5906129e1565b919050555060015442336004546040516020016118d493929190612c6b565b6040516020818303038152906040528051906020012060001c6118f79190612abb565b905090565b60056040518061010001604052808681526020018560ff1681526020018460ff168152602001600163ffffffff1681526020016002544261193d9190612ca8565b63ffffffff168152602001600061ffff168152602001600061ffff1681526020018381525090806001815401808255809150506001900390600052602060002090600302016000909190919091506000820151816000015560208201518160010160006101000a81548160ff021916908360ff16021790555060408201518160010160016101000a81548160ff021916908360ff16021790555060608201518160010160026101000a81548163ffffffff021916908363ffffffff16021790555060808201518160010160066101000a81548163ffffffff021916908363ffffffff16021790555060a082015181600101600a6101000a81548161ffff021916908361ffff16021790555060c082015181600101600c6101000a81548161ffff021916908361ffff16021790555060e0820151816002019081611a809190612eaa565b50505060006001600580549050611a979190612f7c565b9050336007600083815260200190815260200160002060006101000a81548173ffffffffffffffffffffffffffffffffffffffff021916908373ffffffffffffffffffffffffffffffffffffffff160217905550600860003373ffffffffffffffffffffffffffffffffffffffff1673ffffffffffffffffffffffffffffffffffffffff1681526020019081526020016000206000815480929190611b3b906129e1565b91905055507fb651534c6e8f3fa57920ac3ca9a93cefc5ba2a3f2fc70d64ba6e9e02a97865bd818686866001604051611b78959493929190612feb565b60405180910390a15050505050565b611b8f611f53565b73ffffffffffffffffffffffffffffffffffffffff16611bad611047565b73ffffffffffffffffffffffffffffffffffffffff1614611c03576040517f08c379a0000000000000000000000000000000000000000000000000000000008152600401611bfa9061308a565b60405180910390fd5b565b60008060009054906101000a900473ffffffffffffffffffffffffffffffffffffffff169050816000806101000a81548173ffffffffffffffffffffffffffffffffffffffff021916908373ffffffffffffffffffffffffffffffffffffffff1602179055508173ffffffffffffffffffffffffffffffffffffffff168173ffffffffffffffffffffffffffffffffffffffff167f8be0079c531659141344cd1fd0a4f28419497f9722a3daafe3b4186f6b6457e060405160405180910390a35050565b611d1c6001600860008573ffffffffffffffffffffffffffffffffffffffff1673ffffffffffffffffffffffffffffffffffffffff16815260200190815260200160002054611f5b90919063ffffffff16565b600860008473ffffffffffffffffffffffffffffffffffffffff1673ffffffffffffffffffffffffffffffffffffffff16815260200190815260200160002081905550611db26001600860003373ffffffffffffffffffffffffffffffffffffffff1673ffffffffffffffffffffffffffffffffffffffff16815260200190815260200160002054611f7190919063ffffffff16565b600860003373ffffffffffffffffffffffffffffffffffffffff1673ffffffffffffffffffffffffffffffffffffffff16815260200190815260200160002081905550816007600083815260200190815260200160002060006101000a81548173ffffffffffffffffffffffffffffffffffffffff021916908373ffffffffffffffffffffffffffffffffffffffff1602179055507fa170301a3eaa747fe3afbb4de1c3601cf3dee8ef5a572fcb6aaca116cf42c8ee838383604051611e7a93929190612a29565b60405180910390a1505050565b6000611e916118a0565b90506000606482611ea29190612abb565b90506000606483611eb39190612abb565b9050611ebf8282611f87565b505050565b6000600d6000815480929190611ed9906129e1565b9190505550814233600454604051602001611ef693929190612c6b565b6040516020818303038152906040528051906020012060001c611f199190612abb565b9050919050565b60025442611f2e9190612ca8565b8160010160066101000a81548163ffffffff021916908363ffffffff16021790555050565b600033905090565b60008183611f699190612ca8565b905092915050565b60008183611f7f9190612f7c565b905092915050565b600660405180608001604052808460ff1681526020018360ff16815260200160035442611fb49190612ca8565b63ffffffff168152602001600015158152509080600181540180825580915050600190039060005260206000200160009091909190915060008201518160000160006101000a81548160ff021916908360ff16021790555060208201518160000160016101000a81548160ff021916908360ff16021790555060408201518160000160026101000a81548163ffffffff021916908363ffffffff16021790555060608201518160000160066101000a81548160ff02191690831515021790555050506000600160068054905061208a9190612f7c565b9050336009600083815260200190815260200160002060006101000a81548173ffffffffffffffffffffffffffffffffffffffff021916908373ffffffffffffffffffffffffffffffffffffffff160217905550600a60003373ffffffffffffffffffffffffffffffffffffffff1673ffffffffffffffffffffffffffffffffffffffff168152602001908152602001600020600081548092919061212e906129e1565b91905055507f0322e1afa43f8c058c5c4022cf9732734caeb44ed878279c4fcea026453c471d818484604051612166939291906130aa565b60405180910390a1505050565b60405180610100016040528060008152602001600060ff168152602001600060ff168152602001600063ffffffff168152602001600063ffffffff168152602001600061ffff168152602001600061ffff168152602001606081525090565b6040518060800160405280600060ff168152602001600060ff168152602001600063ffffffff1681526020016000151581525090565b600080fd5b600073ffffffffffffffffffffffffffffffffffffffff82169050919050565b60006122388261220d565b9050919050565b6122488161222d565b811461225357600080fd5b50565b6000813590506122658161223f565b92915050565b60006020828403121561228157612280612208565b5b600061228f84828501612256565b91505092915050565b600081519050919050565b600082825260208201905092915050565b6000819050602082019050919050565b6000819050919050565b6122d7816122c4565b82525050565b600060ff82169050919050565b6122f3816122dd565b82525050565b600063ffffffff82169050919050565b612312816122f9565b82525050565b600061ffff82169050919050565b61232f81612318565b82525050565b600081519050919050565b600082825260208201905092915050565b60005b8381101561236f578082015181840152602081019050612354565b8381111561237e576000848401525b50505050565b6000601f19601f8301169050919050565b60006123a082612335565b6123aa8185612340565b93506123ba818560208601612351565b6123c381612384565b840191505092915050565b6000610100830160008301516123e760008601826122ce565b5060208301516123fa60208601826122ea565b50604083015161240d60408601826122ea565b5060608301516124206060860182612309565b5060808301516124336080860182612309565b5060a083015161244660a0860182612326565b5060c083015161245960c0860182612326565b5060e083015184820360e08601526124718282612395565b9150508091505092915050565b600061248a83836123ce565b905092915050565b6000602082019050919050565b60006124aa82612298565b6124b481856122a3565b9350836020820285016124c6856122b4565b8060005b8581101561250257848403895281516124e3858261247e565b94506124ee83612492565b925060208a019950506001810190506124ca565b50829750879550505050505092915050565b6000602082019050818103600083015261252e818461249f565b905092915050565b61253f816122c4565b811461254a57600080fd5b50565b60008135905061255c81612536565b92915050565b6000806040838503121561257957612578612208565b5b600061258785828601612256565b92505060206125988582860161254d565b9150509250929050565b6000602082840312156125b8576125b7612208565b5b60006125c68482850161254d565b91505092915050565b6125d88161222d565b82525050565b60006020820190506125f360008301846125cf565b92915050565b612602816122c4565b82525050565b600060208201905061261d60008301846125f9565b92915050565b61262c816122dd565b82525050565b61263b816122f9565b82525050565b60008115159050919050565b61265681612641565b82525050565b60006080820190506126716000830187612623565b61267e6020830186612623565b61268b6040830185612632565b612698606083018461264d565b95945050505050565b6126aa81612318565b82525050565b600082825260208201905092915050565b60006126cc82612335565b6126d681856126b0565b93506126e6818560208601612351565b6126ef81612384565b840191505092915050565b600061010082019050612710600083018b6125f9565b61271d602083018a612623565b61272a6040830189612623565b6127376060830188612632565b6127446080830187612632565b61275160a08301866126a1565b61275e60c08301856126a1565b81810360e083015261277081846126c1565b90509998505050505050505050565b6000806040838503121561279657612795612208565b5b60006127a48582860161254d565b92505060206127b58582860161254d565b9150509250929050565b600081519050919050565b600082825260208201905092915050565b6000819050602082019050919050565b6127f481612641565b82525050565b60808201600082015161281060008501826122ea565b50602082015161282360208501826122ea565b5060408201516128366040850182612309565b50606082015161284960608501826127eb565b50505050565b600061285b83836127fa565b60808301905092915050565b6000602082019050919050565b600061287f826127bf565b61288981856127ca565b9350612894836127db565b8060005b838110156128c55781516128ac888261284f565b97506128b783612867565b925050600181019050612898565b5085935050505092915050565b600060208201905081810360008301526128ec8184612874565b905092915050565b7f4e487b7100000000000000000000000000000000000000000000000000000000600052604160045260246000fd5b7f4e487b7100000000000000000000000000000000000000000000000000000000600052603260045260246000fd5b7f4e487b7100000000000000000000000000000000000000000000000000000000600052602260045260246000fd5b6000600282049050600182168061299957607f821691505b6020821081036129ac576129ab612952565b5b50919050565b7f4e487b7100000000000000000000000000000000000000000000000000000000600052601160045260246000fd5b60006129ec826122c4565b91507fffffffffffffffffffffffffffffffffffffffffffffffffffffffffffffffff8203612a1e57612a1d6129b2565b5b600182019050919050565b6000606082019050612a3e60008301866125cf565b612a4b60208301856125cf565b612a5860408301846125f9565b949350505050565b6000612a6b826122f9565b915063ffffffff8203612a8157612a806129b2565b5b600182019050919050565b7f4e487b7100000000000000000000000000000000000000000000000000000000600052601260045260246000fd5b6000612ac6826122c4565b9150612ad1836122c4565b925082612ae157612ae0612a8c565b5b828206905092915050565b6000612af7826122c4565b9150612b02836122c4565b925082612b1257612b11612a8c565b5b828204905092915050565b6000612b2882612318565b915061ffff8203612b3c57612b3b6129b2565b5b600182019050919050565b6000604082019050612b5c60008301856125f9565b612b6960208301846125cf565b9392505050565b7f4f776e61626c653a206e6577206f776e657220697320746865207a65726f206160008201527f6464726573730000000000000000000000000000000000000000000000000000602082015250565b6000612bcc6026836126b0565b9150612bd782612b70565b604082019050919050565b60006020820190508181036000830152612bfb81612bbf565b9050919050565b6000819050919050565b612c1d612c18826122c4565b612c02565b82525050565b60008160601b9050919050565b6000612c3b82612c23565b9050919050565b6000612c4d82612c30565b9050919050565b612c65612c608261222d565b612c42565b82525050565b6000612c778286612c0c565b602082019150612c878285612c54565b601482019150612c978284612c0c565b602082019150819050949350505050565b6000612cb3826122c4565b9150612cbe836122c4565b9250827fffffffffffffffffffffffffffffffffffffffffffffffffffffffffffffffff03821115612cf357612cf26129b2565b5b828201905092915050565b60008190508160005260206000209050919050565b60006020601f8301049050919050565b600082821b905092915050565b600060088302612d607fffffffffffffffffffffffffffffffffffffffffffffffffffffffffffffffff82612d23565b612d6a8683612d23565b95508019841693508086168417925050509392505050565b6000819050919050565b6000612da7612da2612d9d846122c4565b612d82565b6122c4565b9050919050565b6000819050919050565b612dc183612d8c565b612dd5612dcd82612dae565b848454612d30565b825550505050565b600090565b612dea612ddd565b612df5818484612db8565b505050565b5b81811015612e1957612e0e600082612de2565b600181019050612dfb565b5050565b601f821115612e5e57612e2f81612cfe565b612e3884612d13565b81016020851015612e47578190505b612e5b612e5385612d13565b830182612dfa565b50505b505050565b600082821c905092915050565b6000612e8160001984600802612e63565b1980831691505092915050565b6000612e9a8383612e70565b9150826002028217905092915050565b612eb382612335565b67ffffffffffffffff811115612ecc57612ecb6128f4565b5b612ed68254612981565b612ee1828285612e1d565b600060209050601f831160018114612f145760008415612f02578287015190505b612f0c8582612e8e565b865550612f74565b601f198416612f2286612cfe565b60005b82811015612f4a57848901518255600182019150602085019450602081019050612f25565b86831015612f675784890151612f63601f891682612e70565b8355505b6001600288020188555050505b505050505050565b6000612f87826122c4565b9150612f92836122c4565b925082821015612fa557612fa46129b2565b5b828203905092915050565b6000819050919050565b6000612fd5612fd0612fcb84612fb0565b612d82565b6122f9565b9050919050565b612fe581612fba565b82525050565b600060a08201905061300060008301886125f9565b61300d60208301876125f9565b61301a6040830186612623565b6130276060830185612623565b6130346080830184612fdc565b9695505050505050565b7f4f776e61626c653a2063616c6c6572206973206e6f7420746865206f776e6572600082015250565b60006130746020836126b0565b915061307f8261303e565b602082019050919050565b600060208201905081810360008301526130a381613067565b9050919050565b60006060820190506130bf60008301866125f9565b6130cc6020830185612623565b6130d96040830184612623565b94935050505056fea26469706673582212204338543ffb61c6b26a06c5adc3c844c54f4b5e77ff75e247bb4853eb689e181d64736f6c634300080f0033",
  "immutableReferences": {},
  "source": "// SPDX-License-Identifier: MIT\r\npragma solidity >=0.4.22 <0.9.0;\r\n\r\nimport \"./HeroOwnership.sol\";\r\n\r\n/// @title HeroWorld \r\n/// @author Rohit Kodam\r\n/// @notice Main File to deploy with AppName.\r\ncontract HeroWorld is HeroOwnership{\r\n\r\n}",
  "sourcePath": "C:\\Users\\kisan\\Desktop\\Hero-World-with-no-Villian\\backend\\contracts\\HeroWorld.sol",
  "compiler": {
    "name": "solc",
    "version": "0.8.15+commit.e14f2714.Emscripten.clang"
  },
  "schemaVersion": "3.4.8",
  "updatedAt": "2022-08-05T19:06:34.116Z",
  "devdoc": {
    "author": "Rohit Kodam",
    "kind": "dev",
    "methods": {
      "owner()": {
        "details": "Returns the address of the current owner."
      },
      "renounceOwnership()": {
        "details": "Leaves the contract without owner. It will not be possible to call `onlyOwner` functions anymore. Can only be called by the current owner. NOTE: Renouncing ownership will leave the contract without an owner, thereby removing any functionality that is only available to the owner."
      },
      "transferOwnership(address)": {
        "details": "Transfers ownership of the contract to a new account (`newOwner`). Can only be called by the current owner."
      }
    },
    "title": "HeroWorld ",
    "version": 1
  },
  "userdoc": {
    "events": {
      "HeroCreated(uint256,uint256,uint8,uint8,uint32)": {
        "notice": "events for creation of Heroes, SummonCards."
      },
      "TransferSuccess(address,address,uint256)": {
        "notice": "events for Transfer, Approvals for transfer."
      }
    },
    "kind": "user",
    "methods": {
      "approve(address,uint256)": {
        "notice": "approve function only Owner can use to approve others to takeOwnership of a Hero."
      },
      "balanceOf(address)": {
        "notice": "gives total number of heroes."
      },
      "fight(uint256,uint256)": {
        "notice": "determines the winner of the fight/duel between two heroes."
      },
      "generateRandomHero()": {
        "notice": "creates the first hero of a player."
      },
      "getAllHeroes()": {
        "notice": "gets all heroes by a owner."
      },
      "getCardsByOwner(address)": {
        "notice": "gets all cards by a owner."
      },
      "getHeroesByOwner(address)": {
        "notice": "gets all heroes by a owner."
      },
      "levelUp(uint256)": {
        "notice": "levels up the hero"
      },
      "ownerOf(uint256)": {
        "notice": "gives owner of a Hero."
      },
      "purchaseCard()": {
        "notice": "purchases a summonCard."
      },
      "setLevelUpFee(uint256)": {
        "notice": "sets fees."
      },
      "takeOwnership(uint256)": {
        "notice": "approved address can use it to takeOwnership of a Hero."
      },
      "transfer(address,uint256)": {
        "notice": "transfer function only Owner can use"
      },
      "useSummoningCard(uint256)": {
        "notice": "uses the summon card to create a hero."
      },
      "withdraw()": {
        "notice": "withdraws the balance of the contract."
      }
    },
    "notice": "Main File to deploy with AppName.",
    "version": 1
  }
}