{
  "contractName": "HeroWorld",
  "abi": [
    {
      "anonymous": false,
      "inputs": [
        {
          "indexed": false,
          "internalType": "address",
          "name": "_from",
          "type": "address"
        },
        {
          "indexed": false,
          "internalType": "address",
          "name": "_to",
          "type": "address"
        },
        {
          "indexed": false,
          "internalType": "uint256",
          "name": "_tokenId",
          "type": "uint256"
        }
      ],
      "name": "ApprovalSuccess",
      "type": "event"
    },
    {
      "anonymous": false,
      "inputs": [
        {
          "indexed": false,
          "internalType": "uint256",
          "name": "heroId",
          "type": "uint256"
        },
        {
          "indexed": false,
          "internalType": "address",
          "name": "owner",
          "type": "address"
        }
      ],
      "name": "FightResult",
      "type": "event"
    },
    {
      "anonymous": false,
      "inputs": [
        {
          "indexed": false,
          "internalType": "uint256",
          "name": "heroId",
          "type": "uint256"
        },
        {
          "indexed": false,
          "internalType": "uint256",
          "name": "dna",
          "type": "uint256"
        },
        {
          "indexed": false,
          "internalType": "uint8",
          "name": "species",
          "type": "uint8"
        },
        {
          "indexed": false,
          "internalType": "uint8",
          "name": "rarity",
          "type": "uint8"
        },
        {
          "indexed": false,
          "internalType": "uint32",
          "name": "level",
          "type": "uint32"
        }
      ],
      "name": "HeroCreated",
      "type": "event"
    },
    {
      "anonymous": false,
      "inputs": [
        {
          "indexed": true,
          "internalType": "address",
          "name": "previousOwner",
          "type": "address"
        },
        {
          "indexed": true,
          "internalType": "address",
          "name": "newOwner",
          "type": "address"
        }
      ],
      "name": "OwnershipTransferred",
      "type": "event"
    },
    {
      "anonymous": false,
      "inputs": [
        {
          "indexed": false,
          "internalType": "uint256",
          "name": "cardId",
          "type": "uint256"
        },
        {
          "indexed": false,
          "internalType": "uint8",
          "name": "species",
          "type": "uint8"
        },
        {
          "indexed": false,
          "internalType": "uint8",
          "name": "rarity",
          "type": "uint8"
        }
      ],
      "name": "SummonCardCreated",
      "type": "event"
    },
    {
      "anonymous": false,
      "inputs": [
        {
          "indexed": false,
          "internalType": "address",
          "name": "_from",
          "type": "address"
        },
        {
          "indexed": false,
          "internalType": "address",
          "name": "_to",
          "type": "address"
        },
        {
          "indexed": false,
          "internalType": "uint256",
          "name": "_tokenId",
          "type": "uint256"
        }
      ],
      "name": "TransferSuccess",
      "type": "event"
    },
    {
      "inputs": [],
      "name": "CardPurchaseFee",
      "outputs": [
        {
          "internalType": "uint256",
          "name": "",
          "type": "uint256"
        }
      ],
      "stateMutability": "view",
      "type": "function",
      "constant": true
    },
    {
      "inputs": [
        {
          "internalType": "address",
          "name": "_to",
          "type": "address"
        },
        {
          "internalType": "uint256",
          "name": "_tokenId",
          "type": "uint256"
        }
      ],
      "name": "approve",
      "outputs": [],
      "stateMutability": "nonpayable",
      "type": "function"
    },
    {
      "inputs": [
        {
          "internalType": "address",
          "name": "_owner",
          "type": "address"
        }
      ],
      "name": "balanceOf",
      "outputs": [
        {
          "internalType": "uint256",
          "name": "_balance",
          "type": "uint256"
        }
      ],
      "stateMutability": "view",
      "type": "function",
      "constant": true
    },
    {
      "inputs": [
        {
          "internalType": "uint256",
          "name": "_heroId",
          "type": "uint256"
        },
        {
          "internalType": "uint256",
          "name": "_targetId",
          "type": "uint256"
        }
      ],
      "name": "fight",
      "outputs": [],
      "stateMutability": "nonpayable",
      "type": "function"
    },
    {
      "inputs": [],
      "name": "generateRandomHero",
      "outputs": [],
      "stateMutability": "nonpayable",
      "type": "function"
    },
    {
      "inputs": [],
      "name": "getAllHeroes",
      "outputs": [
        {
          "components": [
            {
              "internalType": "uint256",
              "name": "heroId",
              "type": "uint256"
            },
            {
              "internalType": "uint256",
              "name": "dna",
              "type": "uint256"
            },
            {
              "internalType": "uint8",
              "name": "species",
              "type": "uint8"
            },
            {
              "internalType": "uint8",
              "name": "rarity",
              "type": "uint8"
            },
            {
              "internalType": "uint32",
              "name": "level",
              "type": "uint32"
            },
            {
              "internalType": "uint32",
              "name": "readyTime",
              "type": "uint32"
            },
            {
              "internalType": "uint16",
              "name": "winCount",
              "type": "uint16"
            },
            {
              "internalType": "uint16",
              "name": "lossCount",
              "type": "uint16"
            },
            {
              "internalType": "string",
              "name": "summonType",
              "type": "string"
            }
          ],
          "internalType": "struct HeroFactory.Hero[]",
          "name": "",
          "type": "tuple[]"
        }
      ],
      "stateMutability": "view",
      "type": "function",
      "constant": true
    },
    {
      "inputs": [
        {
          "internalType": "address",
          "name": "_owner",
          "type": "address"
        }
      ],
      "name": "getCardsByOwner",
      "outputs": [
        {
          "components": [
            {
              "internalType": "uint256",
              "name": "summonCardId",
              "type": "uint256"
            },
            {
              "internalType": "uint8",
              "name": "species",
              "type": "uint8"
            },
            {
              "internalType": "uint8",
              "name": "rarity",
              "type": "uint8"
            },
            {
              "internalType": "uint32",
              "name": "readyTime",
              "type": "uint32"
            },
            {
              "internalType": "bool",
              "name": "used",
              "type": "bool"
            }
          ],
          "internalType": "struct HeroFactory.SummonCard[]",
          "name": "",
          "type": "tuple[]"
        }
      ],
      "stateMutability": "view",
      "type": "function",
      "constant": true
    },
    {
      "inputs": [
        {
          "internalType": "address",
          "name": "_you",
          "type": "address"
        }
      ],
      "name": "getHeroesApprovedForYou",
      "outputs": [
        {
          "components": [
            {
              "internalType": "uint256",
              "name": "heroId",
              "type": "uint256"
            },
            {
              "internalType": "uint256",
              "name": "dna",
              "type": "uint256"
            },
            {
              "internalType": "uint8",
              "name": "species",
              "type": "uint8"
            },
            {
              "internalType": "uint8",
              "name": "rarity",
              "type": "uint8"
            },
            {
              "internalType": "uint32",
              "name": "level",
              "type": "uint32"
            },
            {
              "internalType": "uint32",
              "name": "readyTime",
              "type": "uint32"
            },
            {
              "internalType": "uint16",
              "name": "winCount",
              "type": "uint16"
            },
            {
              "internalType": "uint16",
              "name": "lossCount",
              "type": "uint16"
            },
            {
              "internalType": "string",
              "name": "summonType",
              "type": "string"
            }
          ],
          "internalType": "struct HeroFactory.Hero[]",
          "name": "",
          "type": "tuple[]"
        }
      ],
      "stateMutability": "view",
      "type": "function",
      "constant": true
    },
    {
      "inputs": [
        {
          "internalType": "address",
          "name": "_owner",
          "type": "address"
        }
      ],
      "name": "getHeroesByOthers",
      "outputs": [
        {
          "components": [
            {
              "internalType": "uint256",
              "name": "heroId",
              "type": "uint256"
            },
            {
              "internalType": "uint256",
              "name": "dna",
              "type": "uint256"
            },
            {
              "internalType": "uint8",
              "name": "species",
              "type": "uint8"
            },
            {
              "internalType": "uint8",
              "name": "rarity",
              "type": "uint8"
            },
            {
              "internalType": "uint32",
              "name": "level",
              "type": "uint32"
            },
            {
              "internalType": "uint32",
              "name": "readyTime",
              "type": "uint32"
            },
            {
              "internalType": "uint16",
              "name": "winCount",
              "type": "uint16"
            },
            {
              "internalType": "uint16",
              "name": "lossCount",
              "type": "uint16"
            },
            {
              "internalType": "string",
              "name": "summonType",
              "type": "string"
            }
          ],
          "internalType": "struct HeroFactory.Hero[]",
          "name": "",
          "type": "tuple[]"
        }
      ],
      "stateMutability": "view",
      "type": "function",
      "constant": true
    },
    {
      "inputs": [
        {
          "internalType": "address",
          "name": "_owner",
          "type": "address"
        }
      ],
      "name": "getHeroesByOwner",
      "outputs": [
        {
          "components": [
            {
              "internalType": "uint256",
              "name": "heroId",
              "type": "uint256"
            },
            {
              "internalType": "uint256",
              "name": "dna",
              "type": "uint256"
            },
            {
              "internalType": "uint8",
              "name": "species",
              "type": "uint8"
            },
            {
              "internalType": "uint8",
              "name": "rarity",
              "type": "uint8"
            },
            {
              "internalType": "uint32",
              "name": "level",
              "type": "uint32"
            },
            {
              "internalType": "uint32",
              "name": "readyTime",
              "type": "uint32"
            },
            {
              "internalType": "uint16",
              "name": "winCount",
              "type": "uint16"
            },
            {
              "internalType": "uint16",
              "name": "lossCount",
              "type": "uint16"
            },
            {
              "internalType": "string",
              "name": "summonType",
              "type": "string"
            }
          ],
          "internalType": "struct HeroFactory.Hero[]",
          "name": "",
          "type": "tuple[]"
        }
      ],
      "stateMutability": "view",
      "type": "function",
      "constant": true
    },
    {
      "inputs": [
        {
          "internalType": "uint256",
          "name": "",
          "type": "uint256"
        }
      ],
      "name": "heroToOwner",
      "outputs": [
        {
          "internalType": "address",
          "name": "",
          "type": "address"
        }
      ],
      "stateMutability": "view",
      "type": "function",
      "constant": true
    },
    {
      "inputs": [
        {
          "internalType": "uint256",
          "name": "",
          "type": "uint256"
        }
      ],
      "name": "heroes",
      "outputs": [
        {
          "internalType": "uint256",
          "name": "heroId",
          "type": "uint256"
        },
        {
          "internalType": "uint256",
          "name": "dna",
          "type": "uint256"
        },
        {
          "internalType": "uint8",
          "name": "species",
          "type": "uint8"
        },
        {
          "internalType": "uint8",
          "name": "rarity",
          "type": "uint8"
        },
        {
          "internalType": "uint32",
          "name": "level",
          "type": "uint32"
        },
        {
          "internalType": "uint32",
          "name": "readyTime",
          "type": "uint32"
        },
        {
          "internalType": "uint16",
          "name": "winCount",
          "type": "uint16"
        },
        {
          "internalType": "uint16",
          "name": "lossCount",
          "type": "uint16"
        },
        {
          "internalType": "string",
          "name": "summonType",
          "type": "string"
        }
      ],
      "stateMutability": "view",
      "type": "function",
      "constant": true
    },
    {
      "inputs": [
        {
          "internalType": "uint256",
          "name": "_HeroId",
          "type": "uint256"
        }
      ],
      "name": "levelUp",
      "outputs": [],
      "stateMutability": "payable",
      "type": "function",
      "payable": true
    },
    {
      "inputs": [],
      "name": "levelUpFee",
      "outputs": [
        {
          "internalType": "uint256",
          "name": "",
          "type": "uint256"
        }
      ],
      "stateMutability": "view",
      "type": "function",
      "constant": true
    },
    {
      "inputs": [],
      "name": "owner",
      "outputs": [
        {
          "internalType": "address",
          "name": "",
          "type": "address"
        }
      ],
      "stateMutability": "view",
      "type": "function",
      "constant": true
    },
    {
      "inputs": [
        {
          "internalType": "uint256",
          "name": "_tokenId",
          "type": "uint256"
        }
      ],
      "name": "ownerOf",
      "outputs": [
        {
          "internalType": "address",
          "name": "_owner",
          "type": "address"
        }
      ],
      "stateMutability": "view",
      "type": "function",
      "constant": true
    },
    {
      "inputs": [],
      "name": "purchaseCard",
      "outputs": [],
      "stateMutability": "payable",
      "type": "function",
      "payable": true
    },
    {
      "inputs": [],
      "name": "renounceOwnership",
      "outputs": [],
      "stateMutability": "nonpayable",
      "type": "function"
    },
    {
      "inputs": [
        {
          "internalType": "uint256",
          "name": "_fee",
          "type": "uint256"
        }
      ],
      "name": "setCardPurchaseFee",
      "outputs": [],
      "stateMutability": "nonpayable",
      "type": "function"
    },
    {
      "inputs": [
        {
          "internalType": "uint256",
          "name": "_fee",
          "type": "uint256"
        }
      ],
      "name": "setLevelUpFee",
      "outputs": [],
      "stateMutability": "nonpayable",
      "type": "function"
    },
    {
      "inputs": [
        {
          "internalType": "uint256",
          "name": "",
          "type": "uint256"
        }
      ],
      "name": "summonCardToOwner",
      "outputs": [
        {
          "internalType": "address",
          "name": "",
          "type": "address"
        }
      ],
      "stateMutability": "view",
      "type": "function",
      "constant": true
    },
    {
      "inputs": [
        {
          "internalType": "uint256",
          "name": "",
          "type": "uint256"
        }
      ],
      "name": "summonCards",
      "outputs": [
        {
          "internalType": "uint256",
          "name": "summonCardId",
          "type": "uint256"
        },
        {
          "internalType": "uint8",
          "name": "species",
          "type": "uint8"
        },
        {
          "internalType": "uint8",
          "name": "rarity",
          "type": "uint8"
        },
        {
          "internalType": "uint32",
          "name": "readyTime",
          "type": "uint32"
        },
        {
          "internalType": "bool",
          "name": "used",
          "type": "bool"
        }
      ],
      "stateMutability": "view",
      "type": "function",
      "constant": true
    },
    {
      "inputs": [
        {
          "internalType": "uint256",
          "name": "_tokenId",
          "type": "uint256"
        }
      ],
      "name": "takeOwnership",
      "outputs": [],
      "stateMutability": "nonpayable",
      "type": "function"
    },
    {
      "inputs": [
        {
          "internalType": "address",
          "name": "_to",
          "type": "address"
        },
        {
          "internalType": "uint256",
          "name": "_tokenId",
          "type": "uint256"
        }
      ],
      "name": "transfer",
      "outputs": [],
      "stateMutability": "nonpayable",
      "type": "function"
    },
    {
      "inputs": [
        {
          "internalType": "address",
          "name": "newOwner",
          "type": "address"
        }
      ],
      "name": "transferOwnership",
      "outputs": [],
      "stateMutability": "nonpayable",
      "type": "function"
    },
    {
      "inputs": [
        {
          "internalType": "uint256",
          "name": "_id",
          "type": "uint256"
        }
      ],
      "name": "useSummoningCard",
      "outputs": [],
      "stateMutability": "nonpayable",
      "type": "function"
    },
    {
      "inputs": [],
      "name": "withdraw",
      "outputs": [],
      "stateMutability": "nonpayable",
      "type": "function"
    }
  ],
  "bytecode": "0x6080604052655af3107a4000600155614650600255618ca0600355600060045566038d7ea4c68000600b5566071afd498d0000600c556000600d55603c600e553480156200004c57600080fd5b506200006d620000616200007360201b60201c565b6200007b60201b60201c565b6200013f565b600033905090565b60008060009054906101000a900473ffffffffffffffffffffffffffffffffffffffff169050816000806101000a81548173ffffffffffffffffffffffffffffffffffffffff021916908373ffffffffffffffffffffffffffffffffffffffff1602179055508173ffffffffffffffffffffffffffffffffffffffff168173ffffffffffffffffffffffffffffffffffffffff167f8be0079c531659141344cd1fd0a4f28419497f9722a3daafe3b4186f6b6457e060405160405180910390a35050565b613c53806200014f6000396000f3fe60806040526004361061019c5760003560e01c8063841dea7b116100ec578063ca39e5ef1161008a578063ccf670f811610064578063ccf670f8146105a2578063dccc4f58146105cb578063eba73c7c14610608578063f2fde38b146106455761019c565b8063ca39e5ef14610513578063cb10600b1461053c578063cc90978b146105655761019c565b8063a9059cbb116100c6578063a9059cbb1461048c578063b2e6ceeb146104b5578063b9c94531146104de578063c4114b12146104e85761019c565b8063841dea7b146103db5780638da5cb5b1461041c578063a8d4a03b146104475761019c565b80633ccfd60b1161015957806370a082311161013357806370a082311461031f578063715018a61461035c578063720c83d1146103735780637b0f0a191461039e5761019c565b80633ccfd60b146102a2578063548598ce146102b95780636352211e146102e25761019c565b806307c99f4e146101a1578063095ea7b3146101de5780630ce90ec21461020757806313039b16146102235780631a6fc0a4146102605780631fd0d99e14610277575b600080fd5b3480156101ad57600080fd5b506101c860048036038101906101c39190612d39565b61066e565b6040516101d59190612ff7565b60405180910390f35b3480156101ea57600080fd5b5061020560048036038101906102009190613045565b610963565b005b610221600480360381019061021c9190613085565b610a99565b005b34801561022f57600080fd5b5061024a60048036038101906102459190612d39565b610b0e565b6040516102579190612ff7565b60405180910390f35b34801561026c57600080fd5b50610275610f37565b005b34801561028357600080fd5b5061028c61101b565b60405161029991906130c1565b60405180910390f35b3480156102ae57600080fd5b506102b7611021565b005b3480156102c557600080fd5b506102e060048036038101906102db9190613085565b611072565b005b3480156102ee57600080fd5b5061030960048036038101906103049190613085565b6112c7565b60405161031691906130eb565b60405180910390f35b34801561032b57600080fd5b5061034660048036038101906103419190612d39565b611304565b60405161035391906130c1565b60405180910390f35b34801561036857600080fd5b5061037161134d565b005b34801561037f57600080fd5b50610388611361565b6040516103959190612ff7565b60405180910390f35b3480156103aa57600080fd5b506103c560048036038101906103c09190613085565b6115b3565b6040516103d291906130eb565b60405180910390f35b3480156103e757600080fd5b5061040260048036038101906103fd9190613085565b6115e6565b60405161041395949392919061313f565b60405180910390f35b34801561042857600080fd5b50610431611663565b60405161043e91906130eb565b60405180910390f35b34801561045357600080fd5b5061046e60048036038101906104699190613085565b61168c565b604051610483999897969594939291906131eb565b60405180910390f35b34801561049857600080fd5b506104b360048036038101906104ae9190613045565b6117c8565b005b3480156104c157600080fd5b506104dc60048036038101906104d79190613085565b61187c565b005b6104e661196e565b005b3480156104f457600080fd5b506104fd611986565b60405161050a91906130c1565b60405180910390f35b34801561051f57600080fd5b5061053a6004803603810190610535919061327f565b61198c565b005b34801561054857600080fd5b50610563600480360381019061055e9190613085565b611d3c565b005b34801561057157600080fd5b5061058c60048036038101906105879190613085565b611d4e565b60405161059991906130eb565b60405180910390f35b3480156105ae57600080fd5b506105c960048036038101906105c49190613085565b611d81565b005b3480156105d757600080fd5b506105f260048036038101906105ed9190612d39565b611d93565b6040516105ff9190612ff7565b60405180910390f35b34801561061457600080fd5b5061062f600480360381019061062a9190612d39565b612098565b60405161063c91906133e5565b60405180910390f35b34801561065157600080fd5b5061066c60048036038101906106679190612d39565b6122e2565b005b60606000600860008473ffffffffffffffffffffffffffffffffffffffff1673ffffffffffffffffffffffffffffffffffffffff1681526020019081526020016000205467ffffffffffffffff8111156106cb576106ca613407565b5b60405190808252806020026020018201604052801561070457816020015b6106f1612c33565b8152602001906001900390816106e95790505b5090506000805b600580549050811015610958578473ffffffffffffffffffffffffffffffffffffffff166007600083815260200190815260200160002060009054906101000a900473ffffffffffffffffffffffffffffffffffffffff1673ffffffffffffffffffffffffffffffffffffffff1603610945576005818154811061079257610791613436565b5b90600052602060002090600402016040518061012001604052908160008201548152602001600182015481526020016002820160009054906101000a900460ff1660ff1660ff1681526020016002820160019054906101000a900460ff1660ff1660ff1681526020016002820160029054906101000a900463ffffffff1663ffffffff1663ffffffff1681526020016002820160069054906101000a900463ffffffff1663ffffffff1663ffffffff16815260200160028201600a9054906101000a900461ffff1661ffff1661ffff16815260200160028201600c9054906101000a900461ffff1661ffff1661ffff16815260200160038201805461089690613494565b80601f01602080910402602001604051908101604052809291908181526020018280546108c290613494565b801561090f5780601f106108e45761010080835404028352916020019161090f565b820191906000526020600020905b8154815290600101906020018083116108f257829003601f168201915b50505050508152505083838151811061092b5761092a613436565b5b60200260200101819052508180610941906134f4565b9250505b8080610950906134f4565b91505061070b565b508192505050919050565b806007600082815260200190815260200160002060009054906101000a900473ffffffffffffffffffffffffffffffffffffffff1673ffffffffffffffffffffffffffffffffffffffff163373ffffffffffffffffffffffffffffffffffffffff16146109cf57600080fd5b8273ffffffffffffffffffffffffffffffffffffffff163373ffffffffffffffffffffffffffffffffffffffff1603610a0757600080fd5b82600f600084815260200190815260200160002060006101000a81548173ffffffffffffffffffffffffffffffffffffffff021916908373ffffffffffffffffffffffffffffffffffffffff1602179055507ff3d52c7cc5695b8378b286d8da225d87427a90a9553604ad56d9c3c3bd36367a338484604051610a8c9392919061353c565b60405180910390a1505050565b600b543414610aa757600080fd5b60058181548110610abb57610aba613436565b5b9060005260206000209060040201600201600281819054906101000a900463ffffffff1680929190610aec90613573565b91906101000a81548163ffffffff021916908363ffffffff1602179055505050565b60606000805b600580549050811015610c15578373ffffffffffffffffffffffffffffffffffffffff16600f600083815260200190815260200160002060009054906101000a900473ffffffffffffffffffffffffffffffffffffffff1673ffffffffffffffffffffffffffffffffffffffff16148015610bee57508373ffffffffffffffffffffffffffffffffffffffff166007600083815260200190815260200160002060009054906101000a900473ffffffffffffffffffffffffffffffffffffffff1673ffffffffffffffffffffffffffffffffffffffff1614155b15610c02578180610bfe906134f4565b9250505b8080610c0d906134f4565b915050610b14565b5060008167ffffffffffffffff811115610c3257610c31613407565b5b604051908082528060200260200182016040528015610c6b57816020015b610c58612c33565b815260200190600190039081610c505790505b5090506000805b600580549050811015610f2b578573ffffffffffffffffffffffffffffffffffffffff16600f600083815260200190815260200160002060009054906101000a900473ffffffffffffffffffffffffffffffffffffffff1673ffffffffffffffffffffffffffffffffffffffff16148015610d4c57508573ffffffffffffffffffffffffffffffffffffffff166007600083815260200190815260200160002060009054906101000a900473ffffffffffffffffffffffffffffffffffffffff1673ffffffffffffffffffffffffffffffffffffffff1614155b15610f185760058181548110610d6557610d64613436565b5b90600052602060002090600402016040518061012001604052908160008201548152602001600182015481526020016002820160009054906101000a900460ff1660ff1660ff1681526020016002820160019054906101000a900460ff1660ff1660ff1681526020016002820160029054906101000a900463ffffffff1663ffffffff1663ffffffff1681526020016002820160069054906101000a900463ffffffff1663ffffffff1663ffffffff16815260200160028201600a9054906101000a900461ffff1661ffff1661ffff16815260200160028201600c9054906101000a900461ffff1661ffff1661ffff168152602001600382018054610e6990613494565b80601f0160208091040260200160405190810160405280929190818152602001828054610e9590613494565b8015610ee25780601f10610eb757610100808354040283529160200191610ee2565b820191906000526020600020905b815481529060010190602001808311610ec557829003601f168201915b505050505081525050838381518110610efe57610efd613436565b5b60200260200101819052508180610f14906134f4565b9250505b8080610f23906134f4565b915050610c72565b50819350505050919050565b6000600860003373ffffffffffffffffffffffffffffffffffffffff1673ffffffffffffffffffffffffffffffffffffffff1681526020019081526020016000205414610f8357600080fd5b6000610f8d612365565b90506000606482610f9e91906135ce565b9050606482610fad91906135ff565b91506000606483610fbe91906135ce565b9050606483610fcd91906135ff565b925060006040518060400160405280600e81526020017f457373656e6365206f6620476f640000000000000000000000000000000000008152509050611015848484846123c1565b50505050565b600c5481565b611029612668565b3373ffffffffffffffffffffffffffffffffffffffff166108fc479081150290604051600060405180830381858888f1935050505015801561106f573d6000803e3d6000fd5b50565b806009600082815260200190815260200160002060009054906101000a900473ffffffffffffffffffffffffffffffffffffffff1673ffffffffffffffffffffffffffffffffffffffff163373ffffffffffffffffffffffffffffffffffffffff16146110de57600080fd5b60001515600683815481106110f6576110f5613436565b5b906000526020600020906002020160010160069054906101000a900460ff16151514801561115f5750426006838154811061113457611133613436565b5b906000526020600020906002020160010160029054906101000a900463ffffffff1663ffffffff1611155b61116857600080fd5b60016006838154811061117e5761117d613436565b5b906000526020600020906002020160010160066101000a81548160ff02191690831515021790555060006111b0612365565b9050612710816111c091906135ff565b905060006040518060400160405280600b81526020017f53756d6d6f6e2043617264000000000000000000000000000000000000000000815250905061126c826006868154811061121457611213613436565b5b906000526020600020906002020160010160009054906101000a900460ff166006878154811061124757611246613436565b5b906000526020600020906002020160010160019054906101000a900460ff16846123c1565b600a60003373ffffffffffffffffffffffffffffffffffffffff1673ffffffffffffffffffffffffffffffffffffffff16815260200190815260200160002060008154809291906112bc90613630565b919050555050505050565b60006007600083815260200190815260200160002060009054906101000a900473ffffffffffffffffffffffffffffffffffffffff169050919050565b6000600860008373ffffffffffffffffffffffffffffffffffffffff1673ffffffffffffffffffffffffffffffffffffffff168152602001908152602001600020549050919050565b611355612668565b61135f60006126e6565b565b6060600060058054905067ffffffffffffffff81111561138457611383613407565b5b6040519080825280602002602001820160405280156113bd57816020015b6113aa612c33565b8152602001906001900390816113a25790505b5090506000805b6005805490508110156115aa57600581815481106113e5576113e4613436565b5b90600052602060002090600402016040518061012001604052908160008201548152602001600182015481526020016002820160009054906101000a900460ff1660ff1660ff1681526020016002820160019054906101000a900460ff1660ff1660ff1681526020016002820160029054906101000a900463ffffffff1663ffffffff1663ffffffff1681526020016002820160069054906101000a900463ffffffff1663ffffffff1663ffffffff16815260200160028201600a9054906101000a900461ffff1661ffff1661ffff16815260200160028201600c9054906101000a900461ffff1661ffff1661ffff1681526020016003820180546114e990613494565b80601f016020809104026020016040519081016040528092919081815260200182805461151590613494565b80156115625780601f1061153757610100808354040283529160200191611562565b820191906000526020600020905b81548152906001019060200180831161154557829003601f168201915b50505050508152505083838151811061157e5761157d613436565b5b60200260200101819052508180611594906134f4565b92505080806115a2906134f4565b9150506113c4565b50819250505090565b60076020528060005260406000206000915054906101000a900473ffffffffffffffffffffffffffffffffffffffff1681565b600681815481106115f657600080fd5b90600052602060002090600202016000915090508060000154908060010160009054906101000a900460ff16908060010160019054906101000a900460ff16908060010160029054906101000a900463ffffffff16908060010160069054906101000a900460ff16905085565b60008060009054906101000a900473ffffffffffffffffffffffffffffffffffffffff16905090565b6005818154811061169c57600080fd5b90600052602060002090600402016000915090508060000154908060010154908060020160009054906101000a900460ff16908060020160019054906101000a900460ff16908060020160029054906101000a900463ffffffff16908060020160069054906101000a900463ffffffff169080600201600a9054906101000a900461ffff169080600201600c9054906101000a900461ffff169080600301805461174590613494565b80601f016020809104026020016040519081016040528092919081815260200182805461177190613494565b80156117be5780601f10611793576101008083540402835291602001916117be565b820191906000526020600020905b8154815290600101906020018083116117a157829003601f168201915b5050505050905089565b806007600082815260200190815260200160002060009054906101000a900473ffffffffffffffffffffffffffffffffffffffff1673ffffffffffffffffffffffffffffffffffffffff163373ffffffffffffffffffffffffffffffffffffffff161461183457600080fd5b8273ffffffffffffffffffffffffffffffffffffffff163373ffffffffffffffffffffffffffffffffffffffff160361186c57600080fd5b6118773384846127aa565b505050565b3373ffffffffffffffffffffffffffffffffffffffff16600f600083815260200190815260200160002060009054906101000a900473ffffffffffffffffffffffffffffffffffffffff1673ffffffffffffffffffffffffffffffffffffffff16146118e757600080fd5b60006118f2826112c7565b90508073ffffffffffffffffffffffffffffffffffffffff16600f600084815260200190815260200160002060009054906101000a900473ffffffffffffffffffffffffffffffffffffffff1673ffffffffffffffffffffffffffffffffffffffff160361195f57600080fd5b61196a8133846127aa565b5050565b600c54341461197c57600080fd5b61198461291e565b565b600b5481565b816007600082815260200190815260200160002060009054906101000a900473ffffffffffffffffffffffffffffffffffffffff1673ffffffffffffffffffffffffffffffffffffffff163373ffffffffffffffffffffffffffffffffffffffff16146119f857600080fd5b611a2260058481548110611a0f57611a0e613436565b5b906000526020600020906004020161296a565b8015611a2e5750818314155b8015611a9957503373ffffffffffffffffffffffffffffffffffffffff166007600084815260200190815260200160002060009054906101000a900473ffffffffffffffffffffffffffffffffffffffff1673ffffffffffffffffffffffffffffffffffffffff1614155b611aa257600080fd5b600060058481548110611ab857611ab7613436565b5b90600052602060002090600402019050600060058481548110611ade57611add613436565b5b906000526020600020906004020190506000611afa6064612991565b9050600e548111611c445782600201600a81819054906101000a900461ffff1680929190611b2790613659565b91906101000a81548161ffff021916908361ffff1602179055505082600201600281819054906101000a900463ffffffff1680929190611b6690613573565b91906101000a81548163ffffffff021916908363ffffffff1602179055505081600201600c81819054906101000a900461ffff1680929190611ba790613659565b91906101000a81548161ffff021916908361ffff16021790555050611bcb836129ed565b7f193cb2f9cfa060ff0b24b2e7c8d336a12f7b2da48059a177d9f675e8c3db15ee866007600089815260200190815260200160002060009054906101000a900473ffffffffffffffffffffffffffffffffffffffff16604051611c2f929190613683565b60405180910390a1611c3f61291e565b611d34565b82600201600c81819054906101000a900461ffff1680929190611c6690613659565b91906101000a81548161ffff021916908361ffff1602179055505081600201600a81819054906101000a900461ffff1680929190611ca390613659565b91906101000a81548161ffff021916908361ffff16021790555050611cc7836129ed565b7f193cb2f9cfa060ff0b24b2e7c8d336a12f7b2da48059a177d9f675e8c3db15ee856007600088815260200190815260200160002060009054906101000a900473ffffffffffffffffffffffffffffffffffffffff16604051611d2b929190613683565b60405180910390a15b505050505050565b611d44612668565b80600c8190555050565b60096020528060005260406000206000915054906101000a900473ffffffffffffffffffffffffffffffffffffffff1681565b611d89612668565b80600b8190555050565b60606000600860008473ffffffffffffffffffffffffffffffffffffffff1673ffffffffffffffffffffffffffffffffffffffff16815260200190815260200160002054600580549050611de791906136ac565b67ffffffffffffffff811115611e0057611dff613407565b5b604051908082528060200260200182016040528015611e3957816020015b611e26612c33565b815260200190600190039081611e1e5790505b5090506000805b60058054905081101561208d578473ffffffffffffffffffffffffffffffffffffffff166007600083815260200190815260200160002060009054906101000a900473ffffffffffffffffffffffffffffffffffffffff1673ffffffffffffffffffffffffffffffffffffffff161461207a5760058181548110611ec757611ec6613436565b5b90600052602060002090600402016040518061012001604052908160008201548152602001600182015481526020016002820160009054906101000a900460ff1660ff1660ff1681526020016002820160019054906101000a900460ff1660ff1660ff1681526020016002820160029054906101000a900463ffffffff1663ffffffff1663ffffffff1681526020016002820160069054906101000a900463ffffffff1663ffffffff1663ffffffff16815260200160028201600a9054906101000a900461ffff1661ffff1661ffff16815260200160028201600c9054906101000a900461ffff1661ffff1661ffff168152602001600382018054611fcb90613494565b80601f0160208091040260200160405190810160405280929190818152602001828054611ff790613494565b80156120445780601f1061201957610100808354040283529160200191612044565b820191906000526020600020905b81548152906001019060200180831161202757829003601f168201915b5050505050815250508383815181106120605761205f613436565b5b60200260200101819052508180612076906134f4565b9250505b8080612085906134f4565b915050611e40565b508192505050919050565b60606000600a60008473ffffffffffffffffffffffffffffffffffffffff1673ffffffffffffffffffffffffffffffffffffffff1681526020019081526020016000205467ffffffffffffffff8111156120f5576120f4613407565b5b60405190808252806020026020018201604052801561212e57816020015b61211b612c99565b8152602001906001900390816121135790505b5090506000805b6006805490508110156122d7578473ffffffffffffffffffffffffffffffffffffffff166009600083815260200190815260200160002060009054906101000a900473ffffffffffffffffffffffffffffffffffffffff1673ffffffffffffffffffffffffffffffffffffffff161480156121e05750600681815481106121bf576121be613436565b5b906000526020600020906002020160010160069054906101000a900460ff16155b156122c457600681815481106121f9576121f8613436565b5b90600052602060002090600202016040518060a0016040529081600082015481526020016001820160009054906101000a900460ff1660ff1660ff1681526020016001820160019054906101000a900460ff1660ff1660ff1681526020016001820160029054906101000a900463ffffffff1663ffffffff1663ffffffff1681526020016001820160069054906101000a900460ff1615151515815250508383815181106122aa576122a9613436565b5b602002602001018190525081806122c0906134f4565b9250505b80806122cf906134f4565b915050612135565b508192505050919050565b6122ea612668565b600073ffffffffffffffffffffffffffffffffffffffff168173ffffffffffffffffffffffffffffffffffffffff1603612359576040517f08c379a000000000000000000000000000000000000000000000000000000000815260040161235090613752565b60405180910390fd5b612362816126e6565b50565b60006004600081548092919061237a906134f4565b91905055506001544233600454604051602001612399939291906137db565b6040516020818303038152906040528051906020012060001c6123bc91906135ce565b905090565b6000600580549050905060056040518061012001604052808381526020018781526020018660ff1681526020018560ff168152602001600163ffffffff168152602001600254426124129190613818565b63ffffffff168152602001600061ffff168152602001600061ffff168152602001848152509080600181540180825580915050600190039060005260206000209060040201600090919091909150600082015181600001556020820151816001015560408201518160020160006101000a81548160ff021916908360ff16021790555060608201518160020160016101000a81548160ff021916908360ff16021790555060808201518160020160026101000a81548163ffffffff021916908363ffffffff16021790555060a08201518160020160066101000a81548163ffffffff021916908363ffffffff16021790555060c082015181600201600a6101000a81548161ffff021916908361ffff16021790555060e082015181600201600c6101000a81548161ffff021916908361ffff1602179055506101008201518160030190816125609190613a1a565b5050506000600160058054905061257791906136ac565b9050336007600083815260200190815260200160002060006101000a81548173ffffffffffffffffffffffffffffffffffffffff021916908373ffffffffffffffffffffffffffffffffffffffff160217905550600860003373ffffffffffffffffffffffffffffffffffffffff1673ffffffffffffffffffffffffffffffffffffffff168152602001908152602001600020600081548092919061261b906134f4565b91905055507fb651534c6e8f3fa57920ac3ca9a93cefc5ba2a3f2fc70d64ba6e9e02a97865bd818787876001604051612658959493929190613b27565b60405180910390a1505050505050565b612670612a20565b73ffffffffffffffffffffffffffffffffffffffff1661268e611663565b73ffffffffffffffffffffffffffffffffffffffff16146126e4576040517f08c379a00000000000000000000000000000000000000000000000000000000081526004016126db90613bc6565b60405180910390fd5b565b60008060009054906101000a900473ffffffffffffffffffffffffffffffffffffffff169050816000806101000a81548173ffffffffffffffffffffffffffffffffffffffff021916908373ffffffffffffffffffffffffffffffffffffffff1602179055508173ffffffffffffffffffffffffffffffffffffffff168173ffffffffffffffffffffffffffffffffffffffff167f8be0079c531659141344cd1fd0a4f28419497f9722a3daafe3b4186f6b6457e060405160405180910390a35050565b8173ffffffffffffffffffffffffffffffffffffffff168373ffffffffffffffffffffffffffffffffffffffff16036127e257600080fd5b600860008373ffffffffffffffffffffffffffffffffffffffff1673ffffffffffffffffffffffffffffffffffffffff1681526020019081526020016000206000815480929190612832906134f4565b9190505550600860008473ffffffffffffffffffffffffffffffffffffffff1673ffffffffffffffffffffffffffffffffffffffff168152602001908152602001600020600081548092919061288790613630565b9190505550816007600083815260200190815260200160002060006101000a81548173ffffffffffffffffffffffffffffffffffffffff021916908373ffffffffffffffffffffffffffffffffffffffff1602179055507fa170301a3eaa747fe3afbb4de1c3601cf3dee8ef5a572fcb6aaca116cf42c8ee8383836040516129119392919061353c565b60405180910390a1505050565b6000612928612365565b9050600060648261293991906135ce565b905060648261294891906135ff565b9150600060648361295991906135ce565b90506129658282612a28565b505050565b6000428260020160069054906101000a900463ffffffff1663ffffffff1611159050919050565b6000600d60008154809291906129a6906134f4565b91905055508142336004546040516020016129c3939291906137db565b6040516020818303038152906040528051906020012060001c6129e691906135ce565b9050919050565b600254426129fb9190613818565b8160020160066101000a81548163ffffffff021916908363ffffffff16021790555050565b600033905090565b6000600680549050905060066040518060a001604052808381526020018560ff1681526020018460ff16815260200160035442612a659190613818565b63ffffffff1681526020016000151581525090806001815401808255809150506001900390600052602060002090600202016000909190919091506000820151816000015560208201518160010160006101000a81548160ff021916908360ff16021790555060408201518160010160016101000a81548160ff021916908360ff16021790555060608201518160010160026101000a81548163ffffffff021916908363ffffffff16021790555060808201518160010160066101000a81548160ff021916908315150217905550505060006001600680549050612b4991906136ac565b9050336009600083815260200190815260200160002060006101000a81548173ffffffffffffffffffffffffffffffffffffffff021916908373ffffffffffffffffffffffffffffffffffffffff160217905550600a60003373ffffffffffffffffffffffffffffffffffffffff1673ffffffffffffffffffffffffffffffffffffffff1681526020019081526020016000206000815480929190612bed906134f4565b91905055507f0322e1afa43f8c058c5c4022cf9732734caeb44ed878279c4fcea026453c471d818585604051612c2593929190613be6565b60405180910390a150505050565b6040518061012001604052806000815260200160008152602001600060ff168152602001600060ff168152602001600063ffffffff168152602001600063ffffffff168152602001600061ffff168152602001600061ffff168152602001606081525090565b6040518060a0016040528060008152602001600060ff168152602001600060ff168152602001600063ffffffff1681526020016000151581525090565b600080fd5b600073ffffffffffffffffffffffffffffffffffffffff82169050919050565b6000612d0682612cdb565b9050919050565b612d1681612cfb565b8114612d2157600080fd5b50565b600081359050612d3381612d0d565b92915050565b600060208284031215612d4f57612d4e612cd6565b5b6000612d5d84828501612d24565b91505092915050565b600081519050919050565b600082825260208201905092915050565b6000819050602082019050919050565b6000819050919050565b612da581612d92565b82525050565b600060ff82169050919050565b612dc181612dab565b82525050565b600063ffffffff82169050919050565b612de081612dc7565b82525050565b600061ffff82169050919050565b612dfd81612de6565b82525050565b600081519050919050565b600082825260208201905092915050565b60005b83811015612e3d578082015181840152602081019050612e22565b83811115612e4c576000848401525b50505050565b6000601f19601f8301169050919050565b6000612e6e82612e03565b612e788185612e0e565b9350612e88818560208601612e1f565b612e9181612e52565b840191505092915050565b600061012083016000830151612eb56000860182612d9c565b506020830151612ec86020860182612d9c565b506040830151612edb6040860182612db8565b506060830151612eee6060860182612db8565b506080830151612f016080860182612dd7565b5060a0830151612f1460a0860182612dd7565b5060c0830151612f2760c0860182612df4565b5060e0830151612f3a60e0860182612df4565b50610100830151848203610100860152612f548282612e63565b9150508091505092915050565b6000612f6d8383612e9c565b905092915050565b6000602082019050919050565b6000612f8d82612d66565b612f978185612d71565b935083602082028501612fa985612d82565b8060005b85811015612fe55784840389528151612fc68582612f61565b9450612fd183612f75565b925060208a01995050600181019050612fad565b50829750879550505050505092915050565b600060208201905081810360008301526130118184612f82565b905092915050565b61302281612d92565b811461302d57600080fd5b50565b60008135905061303f81613019565b92915050565b6000806040838503121561305c5761305b612cd6565b5b600061306a85828601612d24565b925050602061307b85828601613030565b9150509250929050565b60006020828403121561309b5761309a612cd6565b5b60006130a984828501613030565b91505092915050565b6130bb81612d92565b82525050565b60006020820190506130d660008301846130b2565b92915050565b6130e581612cfb565b82525050565b600060208201905061310060008301846130dc565b92915050565b61310f81612dab565b82525050565b61311e81612dc7565b82525050565b60008115159050919050565b61313981613124565b82525050565b600060a08201905061315460008301886130b2565b6131616020830187613106565b61316e6040830186613106565b61317b6060830185613115565b6131886080830184613130565b9695505050505050565b61319b81612de6565b82525050565b600082825260208201905092915050565b60006131bd82612e03565b6131c781856131a1565b93506131d7818560208601612e1f565b6131e081612e52565b840191505092915050565b600061012082019050613201600083018c6130b2565b61320e602083018b6130b2565b61321b604083018a613106565b6132286060830189613106565b6132356080830188613115565b61324260a0830187613115565b61324f60c0830186613192565b61325c60e0830185613192565b81810361010083015261326f81846131b2565b90509a9950505050505050505050565b6000806040838503121561329657613295612cd6565b5b60006132a485828601613030565b92505060206132b585828601613030565b9150509250929050565b600081519050919050565b600082825260208201905092915050565b6000819050602082019050919050565b6132f481613124565b82525050565b60a0820160008201516133106000850182612d9c565b5060208201516133236020850182612db8565b5060408201516133366040850182612db8565b5060608201516133496060850182612dd7565b50608082015161335c60808501826132eb565b50505050565b600061336e83836132fa565b60a08301905092915050565b6000602082019050919050565b6000613392826132bf565b61339c81856132ca565b93506133a7836132db565b8060005b838110156133d85781516133bf8882613362565b97506133ca8361337a565b9250506001810190506133ab565b5085935050505092915050565b600060208201905081810360008301526133ff8184613387565b905092915050565b7f4e487b7100000000000000000000000000000000000000000000000000000000600052604160045260246000fd5b7f4e487b7100000000000000000000000000000000000000000000000000000000600052603260045260246000fd5b7f4e487b7100000000000000000000000000000000000000000000000000000000600052602260045260246000fd5b600060028204905060018216806134ac57607f821691505b6020821081036134bf576134be613465565b5b50919050565b7f4e487b7100000000000000000000000000000000000000000000000000000000600052601160045260246000fd5b60006134ff82612d92565b91507fffffffffffffffffffffffffffffffffffffffffffffffffffffffffffffffff8203613531576135306134c5565b5b600182019050919050565b600060608201905061355160008301866130dc565b61355e60208301856130dc565b61356b60408301846130b2565b949350505050565b600061357e82612dc7565b915063ffffffff8203613594576135936134c5565b5b600182019050919050565b7f4e487b7100000000000000000000000000000000000000000000000000000000600052601260045260246000fd5b60006135d982612d92565b91506135e483612d92565b9250826135f4576135f361359f565b5b828206905092915050565b600061360a82612d92565b915061361583612d92565b9250826136255761362461359f565b5b828204905092915050565b600061363b82612d92565b91506000820361364e5761364d6134c5565b5b600182039050919050565b600061366482612de6565b915061ffff8203613678576136776134c5565b5b600182019050919050565b600060408201905061369860008301856130b2565b6136a560208301846130dc565b9392505050565b60006136b782612d92565b91506136c283612d92565b9250828210156136d5576136d46134c5565b5b828203905092915050565b7f4f776e61626c653a206e6577206f776e657220697320746865207a65726f206160008201527f6464726573730000000000000000000000000000000000000000000000000000602082015250565b600061373c6026836131a1565b9150613747826136e0565b604082019050919050565b6000602082019050818103600083015261376b8161372f565b9050919050565b6000819050919050565b61378d61378882612d92565b613772565b82525050565b60008160601b9050919050565b60006137ab82613793565b9050919050565b60006137bd826137a0565b9050919050565b6137d56137d082612cfb565b6137b2565b82525050565b60006137e7828661377c565b6020820191506137f782856137c4565b601482019150613807828461377c565b602082019150819050949350505050565b600061382382612d92565b915061382e83612d92565b9250827fffffffffffffffffffffffffffffffffffffffffffffffffffffffffffffffff03821115613863576138626134c5565b5b828201905092915050565b60008190508160005260206000209050919050565b60006020601f8301049050919050565b600082821b905092915050565b6000600883026138d07fffffffffffffffffffffffffffffffffffffffffffffffffffffffffffffffff82613893565b6138da8683613893565b95508019841693508086168417925050509392505050565b6000819050919050565b600061391761391261390d84612d92565b6138f2565b612d92565b9050919050565b6000819050919050565b613931836138fc565b61394561393d8261391e565b8484546138a0565b825550505050565b600090565b61395a61394d565b613965818484613928565b505050565b5b818110156139895761397e600082613952565b60018101905061396b565b5050565b601f8211156139ce5761399f8161386e565b6139a884613883565b810160208510156139b7578190505b6139cb6139c385613883565b83018261396a565b50505b505050565b600082821c905092915050565b60006139f1600019846008026139d3565b1980831691505092915050565b6000613a0a83836139e0565b9150826002028217905092915050565b613a2382612e03565b67ffffffffffffffff811115613a3c57613a3b613407565b5b613a468254613494565b613a5182828561398d565b600060209050601f831160018114613a845760008415613a72578287015190505b613a7c85826139fe565b865550613ae4565b601f198416613a928661386e565b60005b82811015613aba57848901518255600182019150602085019450602081019050613a95565b86831015613ad75784890151613ad3601f8916826139e0565b8355505b6001600288020188555050505b505050505050565b6000819050919050565b6000613b11613b0c613b0784613aec565b6138f2565b612dc7565b9050919050565b613b2181613af6565b82525050565b600060a082019050613b3c60008301886130b2565b613b4960208301876130b2565b613b566040830186613106565b613b636060830185613106565b613b706080830184613b18565b9695505050505050565b7f4f776e61626c653a2063616c6c6572206973206e6f7420746865206f776e6572600082015250565b6000613bb06020836131a1565b9150613bbb82613b7a565b602082019050919050565b60006020820190508181036000830152613bdf81613ba3565b9050919050565b6000606082019050613bfb60008301866130b2565b613c086020830185613106565b613c156040830184613106565b94935050505056fea2646970667358221220d5e921a3b09587e2a0960356d9901f86a6c61cb003103b73fce80edb2145575f64736f6c634300080f0033",
  "immutableReferences": {},
  "source": "// SPDX-License-Identifier: MIT\r\npragma solidity >=0.4.22 <0.9.0;\r\n\r\nimport \"./HeroOwnership.sol\";\r\n\r\n/// @title HeroWorld \r\n/// @author Rohit Kodam\r\n/// @notice Main File to deploy with AppName.\r\ncontract HeroWorld is HeroOwnership{\r\n\r\n}",
  "sourcePath": "C:\\Users\\kisan\\Desktop\\Hero-World-with-no-Villian\\backend\\contracts\\HeroWorld.sol",
  "compiler": {
    "name": "solc",
    "version": "0.8.15+commit.e14f2714.Emscripten.clang"
  },
  "schemaVersion": "3.4.8",
  "updatedAt": "2022-08-09T17:28:31.475Z",
  "networkType": "ethereum",
  "devdoc": {
    "author": "Rohit Kodam",
    "kind": "dev",
    "methods": {
      "owner()": {
        "details": "Returns the address of the current owner."
      },
      "renounceOwnership()": {
        "details": "Leaves the contract without owner. It will not be possible to call `onlyOwner` functions anymore. Can only be called by the current owner. NOTE: Renouncing ownership will leave the contract without an owner, thereby removing any functionality that is only available to the owner."
      },
      "transferOwnership(address)": {
        "details": "Transfers ownership of the contract to a new account (`newOwner`). Can only be called by the current owner."
      }
    },
    "title": "HeroWorld ",
    "version": 1
  },
  "userdoc": {
    "events": {
      "HeroCreated(uint256,uint256,uint8,uint8,uint32)": {
        "notice": "events for creation of Heroes, SummonCards."
      },
      "TransferSuccess(address,address,uint256)": {
        "notice": "events for Transfer, Approvals for transfer."
      }
    },
    "kind": "user",
    "methods": {
      "approve(address,uint256)": {
        "notice": "approve function only Owner can use to approve others to takeOwnership of a Hero."
      },
      "balanceOf(address)": {
        "notice": "gives total number of heroes."
      },
      "fight(uint256,uint256)": {
        "notice": "determines the winner of the fight/duel between two heroes."
      },
      "generateRandomHero()": {
        "notice": "creates the first hero of a player."
      },
      "getAllHeroes()": {
        "notice": "gets all heroes by a owner."
      },
      "getCardsByOwner(address)": {
        "notice": "gets all cards by a owner."
      },
      "getHeroesApprovedForYou(address)": {
        "notice": "gets all heroes approved for you to take ownership."
      },
      "getHeroesByOthers(address)": {
        "notice": "gets others heroes all."
      },
      "getHeroesByOwner(address)": {
        "notice": "gets all heroes by a owner."
      },
      "levelUp(uint256)": {
        "notice": "levels up the hero"
      },
      "levelUpFee()": {
        "notice": "fees for specific tasks."
      },
      "ownerOf(uint256)": {
        "notice": "gives owner of a Hero."
      },
      "purchaseCard()": {
        "notice": "purchases a summonCard."
      },
      "setLevelUpFee(uint256)": {
        "notice": "sets fees."
      },
      "takeOwnership(uint256)": {
        "notice": "approved address can use it to takeOwnership of a Hero."
      },
      "transfer(address,uint256)": {
        "notice": "transfer function only Owner can use"
      },
      "useSummoningCard(uint256)": {
        "notice": "uses the summon card to create a hero."
      },
      "withdraw()": {
        "notice": "withdraws the balance of the contract."
      }
    },
    "notice": "Main File to deploy with AppName.",
    "version": 1
  }
}